:100000000C942A000C9447000C9447000C94470071
:100010000C9447000C9447000C9447000C94470044
:100020000C9447000C9447000C9447000C94470034
:100030000C9447000C9447000C9447000C94470024
:100040000C9447000C9447000C9447000C94470014
:100050000C94470011241FBECFE5D8E0DEBFCDBF12
:1000600010E0A0E6B0E0E8E5F0E202C005900D92F5
:10007000A239B107D9F710E0A2E9B0E001C01D92A2
:10008000A339B107E1F70E946B0C0C942A100C9471
:100090000000EF92FF920F931F937B018C0120E0F1
:1000A00030E040E05FE40E94490388238CF0C801FF
:1000B000B70120E030E040E05FE40E94C1010E940F
:1000C000A9039B01AC01205030404040504806C07D
:1000D000C801B7010E94A9039B01AC01B901CA0183
:1000E0001F910F91FF90EF900895A0E0B0E0EBE733
:1000F000F0E00C94F30FDC012B01FA019C9192309B
:1001000008F439C1EB018881823008F433C194309E
:1001100069F4843009F02FC111969C91119789815F
:10012000981709F428C1A0E6B0E025C1843009F48D
:1001300021C18230A9F4923009F01DC19A01AD01AC
:1001400088E0EA010990AE01E90109929E0181501F
:10015000C1F7E201898111969C918923818308C1AD
:10016000923009F407C112962D903C901397EB0141
:100170008A819B811496AD90BD90CD90DC901797AD
:10018000EC80FD800E811F819101281B390BB90184
:1001900037FF04C066277727621B730B6032710537
:1001A0000CF061C0121613066CF537014801062EDB
:1001B00004C096948794779467940A94D2F721E0C8
:1001C00030E040E050E004C0220F331F441F551FB1
:1001D0006A95D2F721503040404050402E213F21B7
:1001E00040235123211531054105510521F021E01E
:1001F00030E040E050E079018A01E628F72808293C
:1002000019293CC0232BD1F1260E371E350146019A
:10021000062E04C096948794779467940A94D2F734
:1002200021E030E040E050E004C0220F331F441FC3
:10023000551F6A95D2F721503040404050402A2146
:100240003B214C215D21211531054105510521F04E
:1002500021E030E040E050E059016A01A628B728CB
:10026000C828D9280BC0821593052CF01C01AA249C
:10027000BB24650103C0EE24FF24870111969C91E5
:10028000D20111968C91981709F445C0992339F041
:10029000A80197012A193B094C095D0906C0A6016E
:1002A00095012E193F09400B510B57FD08C01182D3
:1002B0003382228224833583468357831DC081E0A5
:1002C00081833382228288279927DC01821B930B4A
:1002D000A40BB50B84839583A683B7830DC0220F2F
:1002E000331F441F551F24833583468357838281E0
:1002F000938101979383828324813581468157813D
:10030000DA01C9010197A109B1098F5F9F4FAF4F72
:10031000BF4328F30BC0918333822282EA0CFB1C7B
:100320000C1D1D1DE482F5820683178383E0808304
:10033000248135814681578157FF1AC0C901AA27F8
:1003400097FDA095BA2F81709070A070B0705695EF
:10035000479537952795822B932BA42BB52B848318
:100360009583A683B7838281938101969383828349
:10037000DF0101C0D201CD01CDB7DEB7E2E10C94BF
:100380000F10A0E2B0E0E7ECF1E00C94FF0F6983FE
:100390007A838B839C832D833E834F835887E9E048
:1003A000EE2EF12CEC0EFD1ECE010196B7010E943F
:1003B000D2048E010F5E1F4FCE010596B8010E9438
:1003C000D2048A8991E089278A8BC701B801AE01DE
:1003D000475E5F4F0E9475000E94FD03A096E6E015
:1003E0000C941B10A0E2B0E0E8EFF1E00C94FF0FDA
:1003F00069837A838B839C832D833E834F835887C5
:10040000F9E0EF2EF12CEC0EFD1ECE010196B701A6
:100410000E94D2048E010F5E1F4FCE010596B801D7
:100420000E94D204C701B801AE01475E5F4F0E942F
:1004300075000E94FD03A096E6E00C941B10A0E25C
:10044000B0E0E5E2F2E00C94F30F69837A838B83EA
:100450009C832D833E834F835887CE010196BE0136
:10046000675F7F4F0E94D204CE010596BE016F5E8A
:100470007F4F0E94D2049985923088F0898982301A
:10048000C8F0943019F4823051F404C0843029F457
:10049000923081F480E690E0C6C0923049F420E0CA
:1004A0009A858A89981321E02A87CE010996BBC0D4
:1004B000823049F420E09A858A89981321E02A8BBA
:1004C000CE014196B0C02D843E844F8458886D88FB
:1004D0007E888F88988CEE24FF248701AA24BB2471
:1004E000650140E050E060E070E0E0E0F0E0C10174
:1004F00081709070892BE9F0E60CF71C081D191D1E
:100500009A01AB012A0D3B1D4C1D5D1D80E090E062
:10051000A0E0B0E0E614F7040805190520F481E036
:1005200090E0A0E0B0E0BA01A901480F591F6A1F8E
:100530007B1FAA0CBB1CCC1CDD1C97FE08C081E0F5
:1005400090E0A0E0B0E0A82AB92ACA2ADB2A3196B6
:10055000E032F10549F0660C771C881C991C569412
:10056000479437942794C3CFFA85EA892B893C892D
:100570008B859C85280F391F2E5F3F4F17C0CA01FE
:1005800081709070892B61F016950795F794E79428
:1005900080E090E0A0E0B0E8E82AF92A0A2B1B2BC3
:1005A00076956795579547952F5F3F4F77FDE7CF36
:1005B0000CC0440F551F661F771F17FD4160EE0CDE
:1005C000FF1C001F111F21503040403090E05907A0
:1005D00090E0690790E4790760F32B8F3C8FDB0193
:1005E000CA018F779070A070B07080349105A1051A
:1005F000B10561F447FD0AC0E114F10401051105DC
:1006000029F0405C5F4F6F4F7F4F40781A8EFE1786
:1006100011F081E08A8F4D8F5E8F6F8F78A383E01A
:10062000898FCE0149960E94FD03A096E2E10C94C9
:100630000F10A8E1B0E0EFE1F3E00C94FF0F698345
:100640007A838B839C832D833E834F83588789E0F5
:10065000E82EF12CEC0EFD1ECE010196B7010E9492
:10066000D2048E010F5E1F4FCE010596B8010E9485
:10067000D2048985823040F08989823028F0C70110
:10068000B8010E944A0501C08FEF6896E6E00C941D
:100690001B10A8E1B0E0EFE4F3E00C94FF0F6983D6
:1006A0007A838B839C832D833E834F83588789E095
:1006B000E82EF12CEC0EFD1ECE010196B7010E9432
:1006C000D2048E010F5E1F4FCE010596B8010E9425
:1006D000D2048985823040F08989823028F0C701B0
:1006E000B8010E944A0501C08FEF6896E6E00C94BD
:1006F0001B10A8E1B0E0EFE7F3E00C94FF0F698373
:100700007A838B839C832D833E834F83588789E034
:10071000E82EF12CEC0EFD1ECE010196B7010E94D1
:10072000D2048E010F5E1F4FCE010596B8010E94C4
:10073000D2048985823040F08989823028F0C7014F
:10074000B8010E944A0501C081E06896E6E00C9479
:100750001B10ACE0B0E0EFEAF3E00C940310698307
:100760007A838B839C83CE010196BE016B5F7F4FA2
:100770000E94D2048D81823061F1823050F1843048
:1007800021F48E81882351F12EC02F81388537FDC9
:1007900020C06E812F3131051CF06623F9F023C093
:1007A0008EE190E0821B930B29853A854B855C8511
:1007B00004C056954795379527958A95D2F76623B5
:1007C000B1F050954095309521953F4F4F4F5F4F79
:1007D0000EC020E030E040E050E009C02FEF3FEFD6
:1007E0004FEF5FE704C020E030E040E050E8B9019F
:1007F000CA012C96E2E00C941F10DF92EF92FF9258
:100800000F931F93FC01E480F58006811781D1804E
:100810008081823048F480E090E0A0E1B0E0E82AF6
:10082000F92A0A2B1B2BA5C0843009F49FC0823003
:1008300021F4EE24FF24870105C0E114F104010531
:10084000110519F4E0E0F0E096C0628173819FEF3A
:10085000623879070CF05BC022E83FEF261B370BAC
:100860002A3131052CF020E030E040E050E02AC091
:10087000B801A701022E04C0769567955795479554
:100880000A94D2F781E090E0A0E0B0E004C0880FC5
:10089000991FAA1FBB1F2A95D2F70197A109B10979
:1008A0008E219F21A023B1230097A105B10521F03E
:1008B00081E090E0A0E0B0E09A01AB01282B392B59
:1008C0004A2B5B2BDA01C9018F779070A070B07052
:1008D00080349105A105B10539F427FF09C0205CDA
:1008E0003F4F4F4F5F4F04C0215C3F4F4F4F5F4F13
:1008F000E0E0F0E02030A0E03A07A0E04A07A0E402
:100900005A0710F0E1E0F0E079018A0127C0603871
:10091000710564F5FB01E158FF4FD801C7018F77DE
:100920009070A070B07080349105A105B10539F4C4
:10093000E7FE0DC080E490E0A0E0B0E004C08FE3EB
:1009400090E0A0E0B0E0E80EF91E0A1F1B1F17FFA1
:1009500005C016950795F794E794319687E01695AC
:100960000795F794E7948A95D1F705C0EE24FF2404
:100970008701EFEFF0E06E2F679566276795902F60
:100980009F77D794DD24D7948E2F8695492F462BB9
:10099000582F5D29B701CA011F910F91FF90EF9069
:1009A000DF900895FC01DB01408151812281622F9B
:1009B0006F7770E0221F2227221F9381892F880FD3
:1009C000822B282F30E0991F9927991F11969C930D
:1009D000119721153105A9F54115510561057105DD
:1009E00011F482E037C082E89FEF13969C938E93B8
:1009F00012979A01AB0167E0220F331F441F551F66
:100A00006A95D1F783E08C930DC0220F331F441FEA
:100A1000551F12968D919C911397019713969C9355
:100A20008E931297203080E0380780E0480780E4FA
:100A3000580758F314962D933D934D935C93179755
:100A400008952F3F310579F4411551056105710570
:100A500019F484E08C93089564FF03C081E08C93C3
:100A600012C01C9210C02F57304013963C932E9307
:100A7000129783E08C9387E0440F551F661F771F02
:100A80008A95D1F7706414964D935D936D937C9322
:100A9000179708951F93DC01FB019C91923008F495
:100AA00047C08081823008F443C0943051F41196DD
:100AB0001C91843099F58181682F70E0611B710968
:100AC0003FC0843021F0923031F48230B9F181811D
:100AD000882389F12DC011961C9111978230F1F075
:100AE00081811817D9F412962D913C911397828128
:100AF00093818217930794F028173907BCF0149656
:100B00008D919D910D90BC91A02D248135814681C0
:100B10005781281739074A075B0718F4112341F05A
:100B20000AC082179307A407B50740F4112319F0F0
:100B300061E070E005C06FEF7FEF02C060E070E041
:100B4000CB011F910895DF93CF9300D000D00F9277
:100B5000CDB7DEB789836A834B838981282F30E044
:100B60003D832C838C819D818234910509F444C09E
:100B70002C813D812334310534F48C819D81813475
:100B8000910571F0BCC02C813D812334310509F4FD
:100B90005FC08C819D818434910509F485C0AFC00C
:100BA0008B818823A9F4AAE3B0E0EAE3F0E0808136
:100BB000482F8A81282F30E081E090E0022E02C089
:100BC000880F991F0A94E2F7809584238C9397C02D
:100BD000AAE3B0E0EAE3F0E08081482F8A81282F81
:100BE00030E081E090E0022E02C0880F991F0A9445
:100BF000E2F7842B8C9383C08B818823A9F4A7E32D
:100C0000B0E0E7E3F0E08081482F8A81282F30E0D0
:100C100081E090E0022E02C0880F991F0A94E2F74B
:100C2000809584238C936BC0A7E3B0E0E7E3F0E00A
:100C30008081482F8A81282F30E081E090E0022EC9
:100C400002C0880F991F0A94E2F7842B8C9357C037
:100C50008B818823A9F4A4E3B0E0E4E3F0E0808191
:100C6000482F8A81282F30E081E090E0022E02C0D8
:100C7000880F991F0A94E2F7809584238C933FC0D4
:100C8000A4E3B0E0E4E3F0E08081482F8A81282FDC
:100C900030E081E090E0022E02C0880F991F0A9494
:100CA000E2F7842B8C932BC08B818823A9F4A1E3DA
:100CB000B0E0E1E3F0E08081482F8A81282F30E026
:100CC00081E090E0022E02C0880F991F0A94E2F79B
:100CD000809584238C9313C0A1E3B0E0E1E3F0E0BE
:100CE0008081482F8A81282F30E081E090E0022E19
:100CF00002C0880F991F0A94E2F7842B8C930F90FF
:100D00000F900F900F900F90CF91DF910895DF9388
:100D1000CF9300D000D00F92CDB7DEB789836A831E
:100D20004B838981282F30E03D832C838C819D81EA
:100D30008234910509F444C02C813D81233431056E
:100D400034F48C819D818134910571F0BCC02C817B
:100D50003D812334310509F45FC08C819D81843449
:100D6000910509F485C0AFC08B818823A9F4ABE35A
:100D7000B0E0EBE3F0E08081482F8A81282F30E05B
:100D800081E090E0022E02C0880F991F0A94E2F7DA
:100D9000809584238C9397C0ABE3B0E0EBE3F0E065
:100DA0008081482F8A81282F30E081E090E0022E58
:100DB00002C0880F991F0A94E2F7842B8C9383C09A
:100DC0008B818823A9F4A8E3B0E0E8E3F0E0808118
:100DD000482F8A81282F30E081E090E0022E02C067
:100DE000880F991F0A94E2F7809584238C936BC037
:100DF000A8E3B0E0E8E3F0E08081482F8A81282F63
:100E000030E081E090E0022E02C0880F991F0A9422
:100E1000E2F7842B8C9357C08B818823A9F4A5E338
:100E2000B0E0E5E3F0E08081482F8A81282F30E0B0
:100E300081E090E0022E02C0880F991F0A94E2F729
:100E4000809584238C933FC0A5E3B0E0E5E3F0E018
:100E50008081482F8A81282F30E081E090E0022EA7
:100E600002C0880F991F0A94E2F7842B8C932BC041
:100E70008B818823A9F4A2E3B0E0E2E3F0E0808173
:100E8000482F8A81282F30E081E090E0022E02C0B6
:100E9000880F991F0A94E2F7809584238C9313C0DE
:100EA000A2E3B0E0E2E3F0E08081482F8A81282FBE
:100EB00030E081E090E0022E02C0880F991F0A9472
:100EC000E2F7842B8C930F900F900F900F900F9060
:100ED000CF91DF910895DF93CF9300D000D00F9290
:100EE000CDB7DEB78A836B838A81282F30E03D83BC
:100EF0002C834C815D814234510541F18C819D816F
:100F00008334910534F42C813D812134310561F025
:100F100052C04C815D814334510551F18C819D81DA
:100F200084349105B9F147C0E9E3F0E08081282FCE
:100F300030E08B81882F90E0A90102C0559547953C
:100F40008A95E2F7CA018170898335C0E6E3F0E053
:100F50008081282F30E08B81882F90E0A90102C08A
:100F6000559547958A95E2F7CA018170898323C018
:100F7000E3E3F0E08081282F30E08B81882F90E040
:100F8000A90102C0559547958A95E2F7CA0181707B
:100F9000898311C0E0E3F0E08081282F30E08B816D
:100FA000882F90E0A90102C0559547958A95E2F7F0
:100FB000CA018170898389810F900F900F900F90E3
:100FC0000F90CF91DF910895DF93CF93CDB7DEB728
:100FD00061970FB6F894DEBF0FBECDBF198A188A8D
:100FE00081EE8F87188ACBC08889882F90E0FC011A
:100FF000E058FF4F20818889882F90E0FC01E85855
:10100000FF4F9081822F692F40E00E948706198A46
:101010009CC08989882F90E0FC01EC57FF4F20810C
:101020008989882F90E0FC01E458FF4F9081822F3E
:10103000692F0E946B07882309F084C080E090E04C
:10104000AAE7B4E48B879C87AD87BE876B857C85D8
:101050008D859E8520E030E048E453E40E941F0225
:10106000DC01CB018F839887A987BA876F81788548
:1010700089859A8520E030E040E85FE30E947903AB
:1010800088232CF481E090E09E838D833FC06F81A4
:10109000788589859A8520E03FEF4FE757E40E94E5
:1010A000190318164CF56B857C858D859E8520E08F
:1010B00030E040E251E40E941F02DC01CB01BC01A0
:1010C000CD010E944900DC01CB019E838D830FC0BE
:1010D00084E190E09C838B838B819C810197F1F765
:1010E0009C838B838D819E8101979E838D838D81CF
:1010F0009E81009769F714C06F81788589859A85EC
:101100000E944900DC01CB019E838D838D819E81ED
:101110009A83898389819A810197F1F79A838983D8
:101120008989482F50E08889282F30E0CA01880F2C
:10113000991F880F991F820F931FFC01E859FF4FD9
:1011400080818F8789898F5F898B8989843008F4B2
:1011500060CF8889882F90E0FC01E058FF4F208104
:101160008889882F90E0FC01E858FF4F9081822FFA
:10117000692F41E00E94870688898F5F888B888964
:10118000843008F431CF8F8561960FB6F894DEBFB6
:101190000FBECDBFCF91DF910895DF93CF93CDB731
:1011A000DEB76C970FB6F894DEBF0FBECDBF80E000
:1011B00090E0A0E2B2E4898F9A8FAB8FBC8F698DEB
:1011C0007A8D8B8D9C8D20E030E048E453E40E94C2
:1011D0001F02DC01CB018D8B9E8BAF8BB88F6D898D
:1011E0007E898F89988D20E030E040E85FE30E949F
:1011F000790388232CF481E090E09C8B8B8B3FC09B
:101200006D897E898F89988D20E03FEF4FE757E405
:101210000E94190318164CF5698D7A8D8B8D9C8D63
:1012200020E030E040E251E40E941F02DC01CB01EB
:10123000BC01CD010E944900DC01CB019C8B8B8B52
:101240000FC084E190E09A8B898B89899A890197F4
:10125000F1F79A8B898B8B899C8901979C8B8B8B5F
:101260008B899C89009769F714C06D897E898F8965
:10127000988D0E944900DC01CB019C8B8B8B8B8964
:101280009C89988B8F878F8598890197F1F7988B28
:101290008F8788E30E94380B8CE00E94380B81E036
:1012A0000E94380B80E090E0A0E0B0E48B879C8740
:1012B000AD87BE876B857C858D859E8520E030E07F
:1012C00048E453E40E941F02DC01CB018F8398871E
:1012D000A987BA876F81788589859A8520E030E073
:1012E00040E85FE30E94790388232CF481E090E0DA
:1012F0009E838D833FC06F81788589859A8520E0A4
:101300003FEF4FE757E40E94190318164CF56B8521
:101310007C858D859E8520E030E040E251E40E948E
:101320001F02DC01CB01BC01CD010E944900DC01A0
:10133000CB019E838D830FC084E190E09C838B83DF
:101340008B819C810197F1F79C838B838D819E819A
:1013500001979E838D838D819E81009769F714C0CC
:101360006F81788589859A850E944900DC01CB01CF
:101370009E838D838D819E819A83898389819A81C1
:101380000197F1F79A8389836C960FB6F894DEBFC4
:101390000FBECDBFCF91DF910895DF93CF93CDB72F
:1013A000DEB76D970FB6F894DEBF0FBECDBF8D8F41
:1013B00084E460E041E00E94870684E461E040E06C
:1013C0000E9487068D8D0E94DC0A84E462E041E081
:1013D0000E94870680E090E0A0E8BFE3898F9A8FA3
:1013E000AB8FBC8F698D7A8D8B8D9C8D20E030E02A
:1013F00048E453E40E941F02DC01CB018D8B9E8BDD
:10140000AF8BB88F6D897E898F89988D20E030E011
:1014100040E85FE30E94790388232CF481E090E0A8
:101420009C8B8B8B3FC06D897E898F89988D20E046
:101430003FEF4FE757E40E94190318164CF5698DEA
:101440007A8D8B8D9C8D20E030E040E251E40E944B
:101450001F02DC01CB01BC01CD010E944900DC016F
:10146000CB019C8B8B8B0FC084E190E09A8B898B96
:1014700089899A890197F1F79A8B898B8B899C8945
:1014800001979C8B8B8B8B899C89009769F714C083
:101490006D897E898F89988D0E944900DC01CB017E
:1014A0009C8B8B8B8B899C89988B8F878F85988958
:1014B0000197F1F7988B8F8784E462E040E00E9407
:1014C000870680E090E0A0E8BFE38B879C87AD872C
:1014D000BE876B857C858D859E8520E030E048E465
:1014E00053E40E941F02DC01CB018F839887A987F8
:1014F000BA876F81788589859A8520E030E040E859
:101500005FE30E94790388232CF481E090E09E83BE
:101510008D833FC06F81788589859A8520E03FEF74
:101520004FE757E40E94190318164CF56B857C852C
:101530008D859E8520E030E040E251E40E941F024C
:10154000DC01CB01BC01CD010E944900DC01CB01D3
:101550009E838D830FC084E190E09C838B838B817D
:101560009C810197F1F79C838B838D819E810197EC
:101570009E838D838D819E81009769F714C06F8152
:10158000788589859A850E944900DC01CB019E837C
:101590008D838D819E819A83898389819A81019728
:1015A000F1F79A8389836D960FB6F894DEBF0FBE6C
:1015B000CDBFCF91DF910895DF93CF9300D0CDB70A
:1015C000DEB78A838A818170898381E460E0498102
:1015D0000E9487068A8186958170898381E461E013
:1015E00049810E9487068A818695869581708983C4
:1015F00081E462E049810E9487068A81869586950A
:1016000086958170898381E463E049810E94870621
:101610008A8182958F708170898381E464E0498139
:101620000E9487068A81829586958770817089835A
:1016300081E465E049810E9487068A8182958695CA
:10164000869583708170898381E466E049810E9478
:1016500087068A81881F8827881F898381E467E03D
:1016600049810E9487060F900F90CF91DF910895D6
:10167000DF93CF93CDB7DEB76D970FB6F894DEBF8B
:101680000FBECDBF8D8F84E460E040E00E948706EE
:1016900084E461E040E00E9487068D8D0E94DC0AB0
:1016A00084E462E041E00E94870680E090E0A0E8E8
:1016B000BFE3898F9A8FAB8FBC8F698D7A8D8B8DAD
:1016C0009C8D20E030E048E453E40E941F02DC01DE
:1016D000CB018D8B9E8BAF8BB88F6D897E898F8967
:1016E000988D20E030E040E85FE30E947903882392
:1016F0002CF481E090E09C8B8B8B3FC06D897E89C0
:101700008F89988D20E03FEF4FE757E40E9419033F
:1017100018164CF5698D7A8D8B8D9C8D20E030E00C
:1017200040E251E40E941F02DC01CB01BC01CD016B
:101730000E944900DC01CB019C8B8B8B0FC084E1A4
:1017400090E09A8B898B89899A890197F1F79A8B16
:10175000898B8B899C8901979C8B8B8B8B899C892E
:10176000009769F714C06D897E898F89988D0E94D2
:101770004900DC01CB019C8B8B8B8B899C89988BDE
:101780008F878F8598890197F1F7988B8F8784E4ED
:1017900062E040E00E94870680E090E0A0E8BFE3BE
:1017A0008B879C87AD87BE876B857C858D859E8565
:1017B00020E030E048E453E40E941F02DC01CB014A
:1017C0008F839887A987BA876F81788589859A855D
:1017D00020E030E040E85FE30E94790388232CF4A6
:1017E00081E090E09E838D833FC06F8178858985FD
:1017F0009A8520E03FEF4FE757E40E94190318163F
:101800004CF56B857C858D859E8520E030E040E23F
:1018100051E40E941F02DC01CB01BC01CD010E94FA
:101820004900DC01CB019E838D830FC084E190E0F1
:101830009C838B838B819C810197F1F79C838B83A5
:101840008D819E8101979E838D838D819E810097DE
:1018500069F714C06F81788589859A850E9449004F
:10186000DC01CB019E838D838D819E819A83898348
:1018700089819A810197F1F79A8389836D960FB6D2
:10188000F894DEBF0FBECDBFCF91DF910895DF93F7
:10189000CF93CDB7DEB7EAE3F0E08FEF8083E7E3E5
:1018A000F0E08FE38083E4E3F0E08FEF8083E1E317
:1018B000F0E08FEF8083EBE3F0E01082E8E3F0E00C
:1018C0008FEF8083E5E3F0E01082E2E3F0E0108246
:1018D000CF91DF910895DF93CF93CDB7DEB7C05599
:1018E000D0400FB6F894DEBF0FBECDBF0E94470CAC
:1018F0000E94CD081CAECE01CD9629969FAF8EAF2B
:101900002997EDE8F0E02B96FFAFEEAF2B97F5E0CF
:101910002C96FFAF2C972B96EEADFFAD2B9700804A
:101920002B968EAD9FAD2B9701962B969FAF8EAFCA
:101930002B972996EEADFFAD2997008229968EADA3
:101940009FAD2997019629969FAF8EAF29972C9628
:101950009FAD2C9791502C969FAF2C972C96EFAD66
:101960002C97EE23C1F6CE018E5B9F4F2E969FAF34
:101970008EAF2E9788E890E060969FAF8EAF60970D
:1019800095E061969FAF61976096EEADFFAD609771
:10199000008060968EAD9FAD6097019660969FAF78
:1019A0008EAF60972E96EEADFFAD2E9700822E96ED
:1019B0008EAD9FAD2E9701962E969FAF8EAF2E9730
:1019C00061969FAD6197915061969FAF61976196C7
:1019D000EFAD6197EE23C1F61BAE82E08AAF81E0E6
:1019E00089AF1BAE1BC08BAD282F30E0CE018E5BC4
:1019F0009F4FFC01E20FF31F808180680E94380B2B
:101A00008BAD282F30E0CE01CD96FC01E20FF31F05
:101A100080810E94CD098BAD8F5F8BAF8BAD853000
:101A200010F30E94E4078CAF8CAD823011F41AAE33
:101A300066C18CAD863019F481E08AAF60C18CAD8F
:101A4000873009F0ACC0809192008B3051F281E078
:101A50000E94380BFE01EE5BFF4F80818F5FFE011D
:101A6000EE5BFF4F8083FE01EE5BFF4F81818F5F56
:101A7000FE01EE5BFF4F8183FE01EE5BFF4F828133
:101A80008F5FFE01EE5BFF4F8283FE01EE5BFF4F37
:101A900083818F5FFE01EE5BFF4F8383FE01EE5B70
:101AA000FF4F84818F5FFE01EE5BFF4F8483809147
:101AB00092008F5F8093920080E090E0A0E2B1E41A
:101AC0008DAB9EABAFABB8AF6DA97EA98FA998AD1A
:101AD00020E030E048E453E40E941F02DC01CB0127
:101AE00089AB9AABABABBCAB69A97AA98BA99CA912
:101AF00020E030E040E85FE30E94790388232CF483
:101B000081E090E098AB8FA73FC069A97AA98BA923
:101B10009CA920E03FEF4FE757E40E9419031816F5
:101B20004CF56DA97EA98FA998AD20E030E040E288
:101B300051E40E941F02DC01CB01BC01CD010E94D7
:101B40004900DC01CB0198AB8FA70FC084E190E086
:101B50009EA78DA78DA59EA50197F1F79EA78DA79E
:101B60008FA598A9019798AB8FA78FA598A90097E3
:101B700069F7C5C069A97AA98BA99CA90E944900E7
:101B8000DC01CB0198AB8FA78FA598A99CA78BA749
:101B90008BA59CA50197F1F79CA78BA7B0C08CAD36
:101BA000853009F0ACC080919200882309F419CFE8
:101BB00081E00E94380BFE01EE5BFF4F8081815077
:101BC000FE01EE5BFF4F8083FE01EE5BFF4F8181E4
:101BD0008150FE01EE5BFF4F8183FE01EE5BFF4F04
:101BE00082818150FE01EE5BFF4F8283FE01EE5B3E
:101BF000FF4F83818150FE01EE5BFF4F8383FE0127
:101C0000EE5BFF4F84818150FE01EE5BFF4F8483CA
:101C10008091920081508093920080E090E0A0E259
:101C2000B1E48FA398A7A9A7BAA76FA178A589A5A2
:101C30009AA520E030E048E453E40E941F02DC0152
:101C4000CB018BA39CA3ADA3BEA36BA17CA18DA153
:101C50009EA120E030E040E85FE30E947903882302
:101C60002CF481E090E09AA389A33FC06BA17CA1F2
:101C70008DA19EA120E03FEF4FE757E40E9419039A
:101C800018164CF56FA178A589A59AA520E030E03B
:101C900040E251E40E941F02DC01CB01BC01CD01F6
:101CA0000E944900DC01CB019AA389A30FC084E103
:101CB00090E098A38F8F8F8D98A10197F1F798A34B
:101CC0008F8F89A19AA101979AA389A389A19AA12B
:101CD000009769F714C06BA17CA18DA19EA10E9401
:101CE0004900DC01CB019AA389A389A19AA19E8F07
:101CF0008D8F8D8D9E8D0197F1F79E8F8D8F8AAD83
:101D0000813009F0A5C081E00E94380BFE01EE5B36
:101D1000FF4F80818054FE01EE5BFF4F8083FE0108
:101D2000EE5BFF4F81818054FE01EE5BFF4F8183AC
:101D3000FE01EE5BFF4F82818054FE01EE5BFF4FA0
:101D40008283FE01EE5BFF4F83818054FE01EE5BD8
:101D5000FF4F8383FE01EE5BFF4F84818054FE01C1
:101D6000EE5BFF4F848382E08AAF80E090E0A0E2E8
:101D7000B1E4898F9A8FAB8FBC8F698D7A8D8B8DF3
:101D80009C8D20E030E048E453E40E941F02DC0117
:101D9000CB018D8B9E8BAF8BB88F6D897E898F89A0
:101DA000988D20E030E040E85FE30E9479038823CB
:101DB0002CF481E090E09C8B8B8B3FC06D897E89F9
:101DC0008F89988D20E03FEF4FE757E40E94190379
:101DD00018164CF5698D7A8D8B8D9C8D20E030E046
:101DE00040E251E40E941F02DC01CB01BC01CD01A5
:101DF0000E944900DC01CB019C8B8B8B0FC084E1DE
:101E000090E09A8B898B89899A890197F1F79A8B4F
:101E1000898B8B899C8901979C8B8B8B8B899C8967
:101E2000009769F7BDC06D897E898F89988D0E9462
:101E30004900DC01CB019C8B8B8B8B899C89988B17
:101E40008F878F8598890197F1F7988B8F87A8C026
:101E50008AAD882309F0A4C081E00E94380BFE01FE
:101E6000EE5BFF4F8081805CFE01EE5BFF4F808365
:101E7000FE01EE5BFF4F8181805CFE01EE5BFF4F58
:101E80008183FE01EE5BFF4F8281805CFE01EE5B91
:101E9000FF4F8283FE01EE5BFF4F8381805CFE017A
:101EA000EE5BFF4F8383FE01EE5BFF4F8481805C1E
:101EB000FE01EE5BFF4F848382E08AAF80E090E01A
:101EC000A0E2B1E48B879C87AD87BE876B857C855C
:101ED0008D859E8520E030E048E453E40E941F0297
:101EE000DC01CB018F839887A987BA876F817885BA
:101EF00089859A8520E030E040E85FE30E9479031D
:101F000088232CF481E090E09E838D833FC06F8115
:101F1000788589859A8520E03FEF4FE757E40E9456
:101F2000190318164CF56B857C858D859E8520E000
:101F300030E040E251E40E941F02DC01CB01BC0111
:101F4000CD010E944900DC01CB019E838D830FC02F
:101F500084E190E09C838B838B819C810197F1F7D6
:101F60009C838B838D819E8101979E838D838D8140
:101F70009E81009769F714C06F81788589859A855D
:101F80000E944900DC01CB019E838D838D819E815F
:101F90009A83898389819A810197F1F79A8389834A
:101FA0008AAD813041F4FE01EE5BFF4F84818035C4
:101FB00010F019AE0BC08AAD813041F4FE01EE5B2A
:101FC000FF4F8081803410F481E089AF8AAD88238F
:101FD00009F007CDFE01EE5BFF4F8481803108F4EC
:101FE00000CD19AEFECC2F923F924F925F926F922E
:101FF0007F928F929F92AF92BF92CF92DF92EF9299
:10200000FF920F931F93CF93DF93CDB7DEB7CA1B19
:10201000DB0B0FB6F894DEBF0FBECDBF09942A8844
:10202000398848885F846E847D848C849B84AA84EC
:10203000B984C884DF80EE80FD800C811B81AA8179
:10204000B981CE0FD11D0FB6F894DEBF0FBECDBF44
:08205000ED010895F894FFCFA3
:102058000000000000000000010203040506070854
:10206800090A0B0C0D0E0F100302010007060504E8
:10207800424242424242424200010203044E414669
:022088004533DE
:00000001FF
