:100000000C942A000C943F000C943F000C943F0089
:100010000C943F000C943F000C943F000C943F0064
:100020000C943F000C943F000C943F000C943F0054
:100030000C943F000C943F000C943F000C943F0044
:100040000C943F000C943F000C943F000C943F0034
:100050000C943F0011241FBECFE5D8E0DEBFCDBF1A
:1000600010E0A0E6B0E0EAEBF0E102C005900D92EE
:10007000A836B107D9F70E9489050C945B080C9447
:100080000000A0E0B0E0E7E4F0E00C942408DC011C
:100090002B01FA019C91923008F439C1EB0188815F
:1000A000823008F433C1943069F4843009F02FC1F0
:1000B00011969C9111978981981709F428C1A0E69F
:1000C000B0E025C1843009F421C18230A9F4923016
:1000D00009F01DC19A01AD0188E0EA010990AE0165
:1000E000E90109929E018150C1F7E20189811196CF
:1000F0009C918923818308C1923009F407C112962B
:100100002D903C901397EB018A819B811496AD90C2
:10011000BD90CD90DC901797EC80FD800E811F8103
:100120009101281B390BB90137FF04C066277727D7
:10013000621B730B603271050CF061C0121613065E
:100140006CF537014801062E04C096948794779485
:1001500067940A94D2F721E030E040E050E004C018
:10016000220F331F441F551F6A95D2F7215030408C
:10017000404050402E213F2140235123211531057D
:100180004105510521F021E030E040E050E07901E7
:100190008A01E628F728082919293CC0232BD1F128
:1001A000260E371E35014601062E04C0969487940C
:1001B000779467940A94D2F721E030E040E050E071
:1001C00004C0220F331F441F551F6A95D2F72150D8
:1001D0003040404050402A213B214C215D212115D7
:1001E00031054105510521F021E030E040E050E0CB
:1001F00059016A01A628B728C828D9280BC082153A
:1002000093052CF01C01AA24BB24650103C0EE2435
:10021000FF24870111969C91D20111968C91981719
:1002200009F445C0992339F0A80197012A193B091F
:100230004C095D0906C0A60195012E193F09400B26
:10024000510B57FD08C011823382228224833583EB
:10025000468357831DC081E08183338222828827B1
:100260009927DC01821B930BA40BB50B8483958328
:10027000A683B7830DC0220F331F441F551F24834D
:100280003583468357838281938101979383828349
:100290002481358146815781DA01C9010197A1097D
:1002A000B1098F5F9F4FAF4FBF4328F30BC09183BE
:1002B00033822282EA0CFB1C0C1D1D1DE482F58298
:1002C0000683178383E080832481358146815781AB
:1002D00057FF1AC0C901AA2797FDA095BA2F8170B0
:1002E0009070A070B0705695479537952795822BE2
:1002F000932BA42BB52B84839583A683B78382810C
:100300009381019693838283DF0101C0D201CD01E5
:10031000CDB7DEB7E2E10C944008A0E2B0E0E3E93B
:10032000F1E00C94300869837A838B839C832D835E
:100330003E834F835887E9E0EE2EF12CEC0EFD1E34
:10034000CE010196B7010E94F0028E010F5E1F4F91
:10035000CE010596B8010E94F0028A8991E08927B2
:100360008A8BC701B801AE01475E5F4F0E94410012
:100370000E941B02A096E6E00C944C08A0E2B0E0BC
:10038000E4ECF1E00C94300869837A838B839C83DE
:100390002D833E834F835887F9E0EF2EF12CEC0E2E
:1003A000FD1ECE010196B7010E94F0028E010F5E84
:1003B0001F4FCE010596B8010E94F002C701B80197
:1003C000AE01475E5F4F0E9441000E941B02A09653
:1003D000E6E00C944C08A8E1B0E0E1EFF1E00C9409
:1003E000300869837A838B839C832D833E834F837C
:1003F000588789E0E82EF12CEC0EFD1ECE01019607
:10040000B7010E94F0028E010F5E1F4FCE010596CC
:10041000B8010E94F0028985823040F089898230DB
:1004200028F0C701B8010E94680301C081E0689606
:10043000E6E00C944C08DF92EF92FF920F931F932B
:10044000FC01E480F58006811781D18080818230B3
:1004500048F480E090E0A0E1B0E0E82AF92A0A2B15
:100460001B2BA5C0843009F49FC0823021F4EE24F8
:10047000FF24870105C0E114F1040105110519F4F9
:10048000E0E0F0E096C0628173819FEF6238790707
:100490000CF05BC022E83FEF261B370B2A313105F9
:1004A0002CF020E030E040E050E02AC0B801A70185
:1004B000022E04C076956795579547950A94D2F712
:1004C00081E090E0A0E0B0E004C0880F991FAA1F6F
:1004D000BB1F2A95D2F70197A109B1098E219F214F
:1004E000A023B1230097A105B10521F081E090E0A0
:1004F000A0E0B0E09A01AB01282B392B4A2B5B2BF3
:10050000DA01C9018F779070A070B07080349105C6
:10051000A105B10539F427FF09C0205C3F4F4F4FBB
:100520005F4F04C0215C3F4F4F4F5F4FE0E0F0E072
:100530002030A0E03A07A0E04A07A0E45A0710F0F4
:10054000E1E0F0E079018A0127C06038710564F5C7
:10055000FB01E158FF4FD801C7018F779070A07061
:10056000B07080349105A105B10539F4E7FE0DC0E6
:1005700080E490E0A0E0B0E004C08FE390E0A0E071
:10058000B0E0E80EF91E0A1F1B1F17FF05C01695E5
:100590000795F794E794319687E016950795F794B9
:1005A000E7948A95D1F705C0EE24FF248701EFEF89
:1005B000F0E06E2F679566276795902F9F77D79409
:1005C000DD24D7948E2F8695492F462B582F5D29F1
:1005D000B701CA011F910F91FF90EF90DF9008952E
:1005E000FC01DB01408151812281622F6F7770E035
:1005F000221F2227221F9381892F880F822B282FC9
:1006000030E0991F9927991F11969C9311972115F6
:100610003105A9F5411551056105710511F482E017
:1006200037C082E89FEF13969C938E9312979A019E
:10063000AB0167E0220F331F441F551F6A95D1F7A6
:1006400083E08C930DC0220F331F441F551F129659
:100650008D919C911397019713969C938E9312976B
:10066000203080E0380780E0480780E4580758F3DE
:1006700014962D933D934D935C93179708952F3FB8
:10068000310579F4411551056105710519F484E0CE
:100690008C93089564FF03C081E08C9312C01C9278
:1006A00010C02F57304013963C932E93129783E03F
:1006B0008C9387E0440F551F661F771F8A95D1F7EB
:1006C000706414964D935D936D937C931797089582
:1006D0001F93DC01FB019C91923008F447C080819C
:1006E000823008F443C0943051F411961C91843048
:1006F00099F58181682F70E0611B71093FC08430DA
:1007000021F0923031F48230B9F18181882389F16E
:100710002DC011961C9111978230F1F0818118172C
:10072000D9F412962D913C9113978281938182176F
:10073000930794F028173907BCF014968D919D917A
:100740000D90BC91A02D24813581468157812817B9
:1007500039074A075B0718F4112341F00AC08217D2
:100760009307A407B50740F4112319F061E070E086
:1007700005C06FEF7FEF02C060E070E0CB011F911A
:100780000895DF93CF9300D000D00F92CDB7DEB79E
:1007900089836A834B838981282F30E03D832C83B2
:1007A0008C819D818234910509F444C02C813D8166
:1007B0002334310534F48C819D818134910571F0AD
:1007C000BCC02C813D812334310509F45FC08C818C
:1007D0009D818434910509F485C0AFC08B81882345
:1007E000A9F4AAE3B0E0EAE3F0E08081482F8A812F
:1007F000282F30E081E090E0022E02C0880F991F80
:100800000A94E2F7809584238C9397C0AAE3B0E022
:10081000EAE3F0E08081482F8A81282F30E081E0F0
:1008200090E0022E02C0880F991F0A94E2F7842BF1
:100830008C9383C08B818823A9F4A7E3B0E0E7E31E
:10084000F0E08081482F8A81282F30E081E090E01D
:10085000022E02C0880F991F0A94E2F78095842324
:100860008C936BC0A7E3B0E0E7E3F0E08081482F12
:100870008A81282F30E081E090E0022E02C0880FAC
:10088000991F0A94E2F7842B8C9357C08B8188239D
:10089000A9F4A4E3B0E0E4E3F0E08081482F8A818A
:1008A000282F30E081E090E0022E02C0880F991FCF
:1008B0000A94E2F7809584238C933FC0A4E3B0E0D0
:1008C000E4E3F0E08081482F8A81282F30E081E046
:1008D00090E0022E02C0880F991F0A94E2F7842B41
:1008E0008C932BC08B818823A9F4A1E3B0E0E1E3D2
:1008F000F0E08081482F8A81282F30E081E090E06D
:10090000022E02C0880F991F0A94E2F78095842373
:100910008C9313C0A1E3B0E0E1E3F0E08081482FC5
:100920008A81282F30E081E090E0022E02C0880FFB
:10093000991F0A94E2F7842B8C930F900F900F90DD
:100940000F900F90CF91DF910895DF93CF9300D058
:1009500000D00F92CDB7DEB789836A834B8389813C
:10096000282F30E03D832C838C819D81823491053A
:1009700009F444C02C813D812334310534F48C8149
:100980009D818134910571F0BCC02C813D8123345F
:10099000310509F45FC08C819D818434910509F48F
:1009A00085C0AFC08B818823A9F4ABE3B0E0EBE353
:1009B000F0E08081482F8A81282F30E081E090E0AC
:1009C000022E02C0880F991F0A94E2F780958423B3
:1009D0008C9397C0ABE3B0E0EBE3F0E08081482F6D
:1009E0008A81282F30E081E090E0022E02C0880F3B
:1009F000991F0A94E2F7842B8C9383C08B81882300
:100A0000A9F4A8E3B0E0E8E3F0E08081482F8A8110
:100A1000282F30E081E090E0022E02C0880F991F5D
:100A20000A94E2F7809584238C936BC0A8E3B0E02E
:100A3000E8E3F0E08081482F8A81282F30E081E0D0
:100A400090E0022E02C0880F991F0A94E2F7842BCF
:100A50008C9357C08B818823A9F4A5E3B0E0E5E32C
:100A6000F0E08081482F8A81282F30E081E090E0FB
:100A7000022E02C0880F991F0A94E2F78095842302
:100A80008C933FC0A5E3B0E0E5E3F0E08081482F20
:100A90008A81282F30E081E090E0022E02C0880F8A
:100AA000991F0A94E2F7842B8C932BC08B818823A7
:100AB000A9F4A2E3B0E0E2E3F0E08081482F8A816C
:100AC000282F30E081E090E0022E02C0880F991FAD
:100AD0000A94E2F7809584238C9313C0A2E3B0E0DC
:100AE000E2E3F0E08081482F8A81282F30E081E026
:100AF00090E0022E02C0880F991F0A94E2F7842B1F
:100B00008C930F900F900F900F900F90CF91DF91DB
:100B10000895DF93CF93CDB7DEB7A0970FB6F894C3
:100B2000DEBF0FBECDBF84E490E067E070E041E03F
:100B300050E00E94C10384E490E066E070E041E090
:100B400050E00E94C10384E490E065E070E041E081
:100B500050E00E94C10384E490E064E070E041E072
:100B600050E00E94C10384E490E063E070E041E063
:100B700050E00E94C10384E490E067E070E041E04F
:100B800050E00E94A50484E490E066E070E040E05C
:100B900050E00E94A50484E490E065E070E040E04D
:100BA00050E00E94A50484E490E064E070E040E03E
:100BB00050E00E94A50484E490E063E070E040E02F
:100BC00050E00E94A50480E090E0A0E0B0E08D8FAE
:100BD0009E8FAF8FB8A310C06D8D7E8D8F8D98A125
:100BE00020E030E040E85FE30E94BE01DC01CB0181
:100BF0008D8F9E8FAF8FB8A36D8D7E8D8F8D98A1B9
:100C000020E030E04AE753E40E94EB01882324F31C
:100C100084E490E067E070E040E050E00E94A504CA
:100C200084E490E066E070E041E050E00E94A504BA
:100C300084E490E065E070E041E050E00E94A504AB
:100C400084E490E064E070E041E050E00E94A5049C
:100C500084E490E063E070E041E050E00E94A5048D
:100C600080E090E0A0E0B0E0898F9A8FAB8FBC8FDE
:100C700010C0698D7A8D8B8D9C8D20E030E040E82E
:100C80005FE30E94BE01DC01CB01898F9A8FAB8F9D
:100C9000BC8F698D7A8D8B8D9C8D20E030E04AE78A
:100CA00053E40E94EB01882324F384E490E067E09E
:100CB00070E040E050E00E94A50484E490E066E02B
:100CC00070E041E050E00E94A50484E490E065E01B
:100CD00070E040E050E00E94A50484E490E064E00D
:100CE00070E040E050E00E94A50484E490E063E0FE
:100CF00070E040E050E00E94A50480E090E0A0E0B9
:100D0000B0E08D8B9E8BAF8BB88F10C06D897E89C4
:100D10008F89988D20E030E040E85FE30E94BE01BB
:100D2000DC01CB018D8B9E8BAF8BB88F6D897E895B
:100D30008F89988D20E030E04AE753E40E94EB0170
:100D4000882324F384E490E067E070E041E050E021
:100D50000E94A50484E490E066E070E040E050E08A
:100D60000E94A50484E490E065E070E041E050E07A
:100D70000E94A50484E490E064E070E041E050E06B
:100D80000E94A50484E490E063E070E041E050E05C
:100D90000E94A50480E090E0A0E0B0E0898B9A8BEF
:100DA000AB8BBC8B10C069897A898B899C8920E0C8
:100DB00030E040E85FE30E94BE01DC01CB01898B9B
:100DC0009A8BAB8BBC8B69897A898B899C8920E053
:100DD00030E04AE753E40E94EB01882324F384E4E3
:100DE00090E067E070E040E050E00E94A50484E4F9
:100DF00090E066E070E040E050E00E94A50484E4EA
:100E000090E065E070E041E050E00E94A50484E4D9
:100E100090E064E070E040E050E00E94A50484E4CB
:100E200090E063E070E040E050E00E94A50480E0C4
:100E300090E0A0E0B0E08D879E87AF87B88B10C0B0
:100E40006D857E858F85988920E030E040E85FE3FE
:100E50000E94BE01DC01CB018D879E87AF87B88BD6
:100E60006D857E858F85988920E030E04AE753E4E0
:100E70000E94EB01882324F384E490E067E070E0B3
:100E800041E050E00E94A50484E490E066E070E058
:100E900041E050E00E94A50484E490E065E070E049
:100EA00040E050E00E94A50484E490E064E070E03B
:100EB00041E050E00E94A50484E490E063E070E02B
:100EC00041E050E00E94A50480E090E0A0E0B0E0A6
:100ED00089879A87AB87BC8710C069857A858B859F
:100EE0009C8520E030E040E85FE30E94BE01DC0129
:100EF000CB0189879A87AB87BC8769857A858B8583
:100F00009C8520E030E04AE753E40E94EB0188230F
:100F100024F384E490E067E070E040E050E00E9459
:100F2000A50484E490E066E070E040E050E00E94B8
:100F3000A50484E490E065E070E040E050E00E94A9
:100F4000A50484E490E064E070E041E050E00E9499
:100F5000A50484E490E063E070E040E050E00E948B
:100F6000A50480E090E0A0E0B0E08D839E83AF8395
:100F7000B88710C06D817E818F81988520E030E038
:100F800040E85FE30E94BE01DC01CB018D839E83BC
:100F9000AF83B8876D817E818F81988520E030E0B6
:100FA0004AE753E40E94EB01882324F384E490E0B1
:100FB00067E070E041E050E00E94A50484E490E026
:100FC00066E070E041E050E00E94A50484E490E017
:100FD00065E070E041E050E00E94A50484E490E008
:100FE00064E070E040E050E00E94A50484E490E0FA
:100FF00063E070E041E050E00E94A50480E090E0F2
:10100000A0E0B0E089839A83AB83BC8310C0698180
:101010007A818B819C8120E030E040E85FE30E9490
:10102000BE01DC01CB0189839A83AB83BC836981D8
:101030007A818B819C8120E030E04AE753E40E9472
:10104000EB01882324F397CD2F923F924F925F922A
:101050006F927F928F929F92AF92BF92CF92DF92C8
:10106000EF92FF920F931F93CF93DF93CDB7DEB72D
:10107000CA1BDB0B0FB6F894DEBF0FBECDBF0994C1
:101080002A88398848885F846E847D848C849B8418
:10109000AA84B984C884DF80EE80FD800C811B8126
:1010A000AA81B981CE0FD11D0FB6F894DEBF0FBE55
:0A10B000CDBFED010895F894FFCFC5
:0810BA0000000000000000002E
:00000001FF
