:100000000C942A000C9447000C9447000C94470071
:100010000C9447000C9447000C9447000C94470044
:100020000C9447000C9447000C9447000C94470034
:100030000C9447000C9447000C9447000C94470024
:100040000C9447000C9447000C9447000C94470014
:100050000C94470011241FBECFE5D8E0DEBFCDBF12
:1000600010E0A0E6B0E0E4E0F8E102C005900D92F7
:10007000A638B107D9F710E0A6E8B0E001C01D929C
:10008000A738B107E1F70E94500A0C94000C0C94B9
:100090000000EF92FF920F931F937B018C0120E0F1
:1000A00030E040E05FE40E94490388238CF0C801FF
:1000B000B70120E030E040E05FE40E94C1010E940F
:1000C000A9039B01AC01205030404040504806C07D
:1000D000C801B7010E94A9039B01AC01B901CA0183
:1000E0001F910F91FF90EF900895A0E0B0E0EBE733
:1000F000F0E00C94C90BDC012B01FA019C919230C9
:1001000008F439C1EB018881823008F433C194309E
:1001100069F4843009F02FC111969C91119789815F
:10012000981709F428C1A0E6B0E025C1843009F48D
:1001300021C18230A9F4923009F01DC19A01AD01AC
:1001400088E0EA010990AE01E90109929E0181501F
:10015000C1F7E201898111969C918923818308C1AD
:10016000923009F407C112962D903C901397EB0141
:100170008A819B811496AD90BD90CD90DC901797AD
:10018000EC80FD800E811F819101281B390BB90184
:1001900037FF04C066277727621B730B6032710537
:1001A0000CF061C0121613066CF537014801062EDB
:1001B00004C096948794779467940A94D2F721E0C8
:1001C00030E040E050E004C0220F331F441F551FB1
:1001D0006A95D2F721503040404050402E213F21B7
:1001E00040235123211531054105510521F021E01E
:1001F00030E040E050E079018A01E628F72808293C
:1002000019293CC0232BD1F1260E371E350146019A
:10021000062E04C096948794779467940A94D2F734
:1002200021E030E040E050E004C0220F331F441FC3
:10023000551F6A95D2F721503040404050402A2146
:100240003B214C215D21211531054105510521F04E
:1002500021E030E040E050E059016A01A628B728CB
:10026000C828D9280BC0821593052CF01C01AA249C
:10027000BB24650103C0EE24FF24870111969C91E5
:10028000D20111968C91981709F445C0992339F041
:10029000A80197012A193B094C095D0906C0A6016E
:1002A00095012E193F09400B510B57FD08C01182D3
:1002B0003382228224833583468357831DC081E0A5
:1002C00081833382228288279927DC01821B930B4A
:1002D000A40BB50B84839583A683B7830DC0220F2F
:1002E000331F441F551F24833583468357838281E0
:1002F000938101979383828324813581468157813D
:10030000DA01C9010197A109B1098F5F9F4FAF4F72
:10031000BF4328F30BC0918333822282EA0CFB1C7B
:100320000C1D1D1DE482F5820683178383E0808304
:10033000248135814681578157FF1AC0C901AA27F8
:1003400097FDA095BA2F81709070A070B0705695EF
:10035000479537952795822B932BA42BB52B848318
:100360009583A683B7838281938101969383828349
:10037000DF0101C0D201CD01CDB7DEB7E2E10C94BF
:10038000E50BA0E2B0E0E7ECF1E00C94D50B69835B
:100390007A838B839C832D833E834F835887E9E048
:1003A000EE2EF12CEC0EFD1ECE010196B7010E943F
:1003B000D2048E010F5E1F4FCE010596B8010E9438
:1003C000D2048A8991E089278A8BC701B801AE01DE
:1003D000475E5F4F0E9475000E94FD03A096E6E015
:1003E0000C94F10BA0E2B0E0E8EFF1E00C94D50B37
:1003F00069837A838B839C832D833E834F835887C5
:10040000F9E0EF2EF12CEC0EFD1ECE010196B701A6
:100410000E94D2048E010F5E1F4FCE010596B801D7
:100420000E94D204C701B801AE01475E5F4F0E942F
:1004300075000E94FD03A096E6E00C94F10BA0E28B
:10044000B0E0E5E2F2E00C94C90B69837A838B8318
:100450009C832D833E834F835887CE010196BE0136
:10046000675F7F4F0E94D204CE010596BE016F5E8A
:100470007F4F0E94D2049985923088F0898982301A
:10048000C8F0943019F4823051F404C0843029F457
:10049000923081F480E690E0C6C0923049F420E0CA
:1004A0009A858A89981321E02A87CE010996BBC0D4
:1004B000823049F420E09A858A89981321E02A8BBA
:1004C000CE014196B0C02D843E844F8458886D88FB
:1004D0007E888F88988CEE24FF248701AA24BB2471
:1004E000650140E050E060E070E0E0E0F0E0C10174
:1004F00081709070892BE9F0E60CF71C081D191D1E
:100500009A01AB012A0D3B1D4C1D5D1D80E090E062
:10051000A0E0B0E0E614F7040805190520F481E036
:1005200090E0A0E0B0E0BA01A901480F591F6A1F8E
:100530007B1FAA0CBB1CCC1CDD1C97FE08C081E0F5
:1005400090E0A0E0B0E0A82AB92ACA2ADB2A3196B6
:10055000E032F10549F0660C771C881C991C569412
:10056000479437942794C3CFFA85EA892B893C892D
:100570008B859C85280F391F2E5F3F4F17C0CA01FE
:1005800081709070892B61F016950795F794E79428
:1005900080E090E0A0E0B0E8E82AF92A0A2B1B2BC3
:1005A00076956795579547952F5F3F4F77FDE7CF36
:1005B0000CC0440F551F661F771F17FD4160EE0CDE
:1005C000FF1C001F111F21503040403090E05907A0
:1005D00090E0690790E4790760F32B8F3C8FDB0193
:1005E000CA018F779070A070B07080349105A1051A
:1005F000B10561F447FD0AC0E114F10401051105DC
:1006000029F0405C5F4F6F4F7F4F40781A8EFE1786
:1006100011F081E08A8F4D8F5E8F6F8F78A383E01A
:10062000898FCE0149960E94FD03A096E2E10C94C9
:10063000E50BA8E1B0E0EFE1F3E00C94D50B6983A2
:100640007A838B839C832D833E834F83588789E0F5
:10065000E82EF12CEC0EFD1ECE010196B7010E9492
:10066000D2048E010F5E1F4FCE010596B8010E9485
:10067000D2048985823040F08989823028F0C70110
:10068000B8010E944A0501C08FEF6896E6E00C941D
:10069000F10BA8E1B0E0EFE4F3E00C94D50B698333
:1006A0007A838B839C832D833E834F83588789E095
:1006B000E82EF12CEC0EFD1ECE010196B7010E9432
:1006C000D2048E010F5E1F4FCE010596B8010E9425
:1006D000D2048985823040F08989823028F0C701B0
:1006E000B8010E944A0501C08FEF6896E6E00C94BD
:1006F000F10BA8E1B0E0EFE7F3E00C94D50B6983D0
:100700007A838B839C832D833E834F83588789E034
:10071000E82EF12CEC0EFD1ECE010196B7010E94D1
:10072000D2048E010F5E1F4FCE010596B8010E94C4
:10073000D2048985823040F08989823028F0C7014F
:10074000B8010E944A0501C081E06896E6E00C9479
:10075000F10BACE0B0E0EFEAF3E00C94D90B698365
:100760007A838B839C83CE010196BE016B5F7F4FA2
:100770000E94D2048D81823061F1823050F1843048
:1007800021F48E81882351F12EC02F81388537FDC9
:1007900020C06E812F3131051CF06623F9F023C093
:1007A0008EE190E0821B930B29853A854B855C8511
:1007B00004C056954795379527958A95D2F76623B5
:1007C000B1F050954095309521953F4F4F4F5F4F79
:1007D0000EC020E030E040E050E009C02FEF3FEFD6
:1007E0004FEF5FE704C020E030E040E050E8B9019F
:1007F000CA012C96E2E00C94F50BDF92EF92FF9287
:100800000F931F93FC01E480F58006811781D1804E
:100810008081823048F480E090E0A0E1B0E0E82AF6
:10082000F92A0A2B1B2BA5C0843009F49FC0823003
:1008300021F4EE24FF24870105C0E114F104010531
:10084000110519F4E0E0F0E096C0628173819FEF3A
:10085000623879070CF05BC022E83FEF261B370BAC
:100860002A3131052CF020E030E040E050E02AC091
:10087000B801A701022E04C0769567955795479554
:100880000A94D2F781E090E0A0E0B0E004C0880FC5
:10089000991FAA1FBB1F2A95D2F70197A109B10979
:1008A0008E219F21A023B1230097A105B10521F03E
:1008B00081E090E0A0E0B0E09A01AB01282B392B59
:1008C0004A2B5B2BDA01C9018F779070A070B07052
:1008D00080349105A105B10539F427FF09C0205CDA
:1008E0003F4F4F4F5F4F04C0215C3F4F4F4F5F4F13
:1008F000E0E0F0E02030A0E03A07A0E04A07A0E402
:100900005A0710F0E1E0F0E079018A0127C0603871
:10091000710564F5FB01E158FF4FD801C7018F77DE
:100920009070A070B07080349105A105B10539F4C4
:10093000E7FE0DC080E490E0A0E0B0E004C08FE3EB
:1009400090E0A0E0B0E0E80EF91E0A1F1B1F17FFA1
:1009500005C016950795F794E794319687E01695AC
:100960000795F794E7948A95D1F705C0EE24FF2404
:100970008701EFEFF0E06E2F679566276795902F60
:100980009F77D794DD24D7948E2F8695492F462BB9
:10099000582F5D29B701CA011F910F91FF90EF9069
:1009A000DF900895FC01DB01408151812281622F9B
:1009B0006F7770E0221F2227221F9381892F880FD3
:1009C000822B282F30E0991F9927991F11969C930D
:1009D000119721153105A9F54115510561057105DD
:1009E00011F482E037C082E89FEF13969C938E93B8
:1009F00012979A01AB0167E0220F331F441F551F66
:100A00006A95D1F783E08C930DC0220F331F441FEA
:100A1000551F12968D919C911397019713969C9355
:100A20008E931297203080E0380780E0480780E4FA
:100A3000580758F314962D933D934D935C93179755
:100A400008952F3F310579F4411551056105710570
:100A500019F484E08C93089564FF03C081E08C93C3
:100A600012C01C9210C02F57304013963C932E9307
:100A7000129783E08C9387E0440F551F661F771F02
:100A80008A95D1F7706414964D935D936D937C9322
:100A9000179708951F93DC01FB019C91923008F495
:100AA00047C08081823008F443C0943051F41196DD
:100AB0001C91843099F58181682F70E0611B710968
:100AC0003FC0843021F0923031F48230B9F181811D
:100AD000882389F12DC011961C9111978230F1F075
:100AE00081811817D9F412962D913C911397828128
:100AF00093818217930794F028173907BCF0149656
:100B00008D919D910D90BC91A02D248135814681C0
:100B10005781281739074A075B0718F4112341F05A
:100B20000AC082179307A407B50740F4112319F0F0
:100B300061E070E005C06FEF7FEF02C060E070E041
:100B4000CB011F910895DF93CF9300D000D00F9277
:100B5000CDB7DEB789836A834B838981282F30E044
:100B60003D832C838C819D818234910509F444C09E
:100B70002C813D812334310534F48C819D81813475
:100B8000910571F0BCC02C813D812334310509F4FD
:100B90005FC08C819D818434910509F485C0AFC00C
:100BA0008B818823A9F4AAE3B0E0EAE3F0E0808136
:100BB000482F8A81282F30E081E090E0022E02C089
:100BC000880F991F0A94E2F7809584238C9397C02D
:100BD000AAE3B0E0EAE3F0E08081482F8A81282F81
:100BE00030E081E090E0022E02C0880F991F0A9445
:100BF000E2F7842B8C9383C08B818823A9F4A7E32D
:100C0000B0E0E7E3F0E08081482F8A81282F30E0D0
:100C100081E090E0022E02C0880F991F0A94E2F74B
:100C2000809584238C936BC0A7E3B0E0E7E3F0E00A
:100C30008081482F8A81282F30E081E090E0022EC9
:100C400002C0880F991F0A94E2F7842B8C9357C037
:100C50008B818823A9F4A4E3B0E0E4E3F0E0808191
:100C6000482F8A81282F30E081E090E0022E02C0D8
:100C7000880F991F0A94E2F7809584238C933FC0D4
:100C8000A4E3B0E0E4E3F0E08081482F8A81282FDC
:100C900030E081E090E0022E02C0880F991F0A9494
:100CA000E2F7842B8C932BC08B818823A9F4A1E3DA
:100CB000B0E0E1E3F0E08081482F8A81282F30E026
:100CC00081E090E0022E02C0880F991F0A94E2F79B
:100CD000809584238C9313C0A1E3B0E0E1E3F0E0BE
:100CE0008081482F8A81282F30E081E090E0022E19
:100CF00002C0880F991F0A94E2F7842B8C930F90FF
:100D00000F900F900F900F90CF91DF910895DF9388
:100D1000CF9300D000D00F92CDB7DEB789836A831E
:100D20004B838981282F30E03D832C838C819D81EA
:100D30008234910509F444C02C813D81233431056E
:100D400034F48C819D818134910571F0BCC02C817B
:100D50003D812334310509F45FC08C819D81843449
:100D6000910509F485C0AFC08B818823A9F4ABE35A
:100D7000B0E0EBE3F0E08081482F8A81282F30E05B
:100D800081E090E0022E02C0880F991F0A94E2F7DA
:100D9000809584238C9397C0ABE3B0E0EBE3F0E065
:100DA0008081482F8A81282F30E081E090E0022E58
:100DB00002C0880F991F0A94E2F7842B8C9383C09A
:100DC0008B818823A9F4A8E3B0E0E8E3F0E0808118
:100DD000482F8A81282F30E081E090E0022E02C067
:100DE000880F991F0A94E2F7809584238C936BC037
:100DF000A8E3B0E0E8E3F0E08081482F8A81282F63
:100E000030E081E090E0022E02C0880F991F0A9422
:100E1000E2F7842B8C9357C08B818823A9F4A5E338
:100E2000B0E0E5E3F0E08081482F8A81282F30E0B0
:100E300081E090E0022E02C0880F991F0A94E2F729
:100E4000809584238C933FC0A5E3B0E0E5E3F0E018
:100E50008081482F8A81282F30E081E090E0022EA7
:100E600002C0880F991F0A94E2F7842B8C932BC041
:100E70008B818823A9F4A2E3B0E0E2E3F0E0808173
:100E8000482F8A81282F30E081E090E0022E02C0B6
:100E9000880F991F0A94E2F7809584238C9313C0DE
:100EA000A2E3B0E0E2E3F0E08081482F8A81282FBE
:100EB00030E081E090E0022E02C0880F991F0A9472
:100EC000E2F7842B8C930F900F900F900F900F9060
:100ED000CF91DF910895DF93CF9300D000D00F9290
:100EE000CDB7DEB78A836B838A81282F30E03D83BC
:100EF0002C834C815D814234510541F18C819D816F
:100F00008334910534F42C813D812134310561F025
:100F100052C04C815D814334510551F18C819D81DA
:100F200084349105B9F147C0E9E3F0E08081282FCE
:100F300030E08B81882F90E0A90102C0559547953C
:100F40008A95E2F7CA018170898335C0E6E3F0E053
:100F50008081282F30E08B81882F90E0A90102C08A
:100F6000559547958A95E2F7CA018170898323C018
:100F7000E3E3F0E08081282F30E08B81882F90E040
:100F8000A90102C0559547958A95E2F7CA0181707B
:100F9000898311C0E0E3F0E08081282F30E08B816D
:100FA000882F90E0A90102C0559547958A95E2F7F0
:100FB000CA018170898389810F900F900F900F90E3
:100FC0000F90CF91DF910895DF93CF93CDB7DEB728
:100FD000EAE3F0E08FEF8083E7E3F0E08FE38083E4
:100FE000E4E3F0E08FEF8083E1E3F0E08FEF8083D4
:100FF000EBE3F0E01082E8E3F0E08FEF8083E5E3DD
:10100000F0E01082E2E3F0E01082CF91DF910895EA
:10101000DF93CF93CDB7DEB767970FB6F894DEBFF7
:101020000FBECDBF8B87CE0101969C8B8B8BE4E7E7
:10103000F0E0FE8BED8BFAE0FF8BED89FE890080FE
:101040008D899E8901969E8B8D8BEB89FC89008210
:101050008B899C8901969C8B8B8B9F8991509F8B50
:10106000EF89EE2351F78B85282F30E0CE010196D2
:10107000FC01E20FF31F8081882F90E08170907057
:101080001A8A009711F4F1E0FA8B81E465E04A894D
:101090000E9487068B85282F30E0CE010196FC0147
:1010A000E20FF31F80818695882F90E08170907009
:1010B000198A009711F481E0898B81E464E0498901
:1010C0000E9487068B85282F30E0CE010196FC0117
:1010D000E20FF31F808186958695882F90E08170BE
:1010E0009070188A009711F491E0988B81E461E088
:1010F00048890E9487068B85282F30E0CE01019613
:10110000FC01E20FF31F8081869586958695882FD6
:1011100090E0817090701F86009711F4E1E0EF87F6
:1011200081E462E04F850E9487068B85282F30E09E
:10113000CE010196FC01E20FF31F808182958F7032
:10114000882F90E0817090701E86009711F4F1E076
:10115000FE8781E463E04E850E9487068B85282FF9
:1011600030E0CE010196FC01E20FF31F80818295F1
:1011700086958770882F90E0817090701D8600970B
:1011800011F481E08D8781E466E04D850E94870639
:101190008B85282F30E0CE010196FC01E20FF31F72
:1011A00080818295869586958370882F90E08170E6
:1011B00090701C86009711F491E09C8781E467E0B1
:1011C0004C850E9487068B85282F30E0CE01019642
:1011D000FC01E20FF31F8081982F991F9927991F17
:1011E00081E0982781E460E0492F0E948706679696
:1011F0000FB6F894DEBF0FBECDBFCF91DF9108953B
:10120000DF93CF93CDB7DEB765970FB6F894DEBF07
:101210000FBECDBF8987CE0101969A8B898BEEE7F1
:10122000F0E0FC8BEB8BF8E0FD8BEB89FC89008018
:101230008B899C8901969C8B8B8BE989FA8900822A
:1012400089899A8901969A8B898B9D8991509D8B6A
:10125000ED89EE2351F78985282F30E0CE010196E4
:10126000FC01E20FF31F8081882F90E08170907065
:10127000188A009711F4F1E0F88B81E465E0488961
:101280000E9487068985282F30E0CE010196FC0157
:10129000E20FF31F80818695882F90E08170907017
:1012A0001F86009711F481E08F8781E464E04F8509
:1012B0000E9487068985282F30E0CE010196FC0127
:1012C000E20FF31F808186958695882F90E08170CC
:1012D00090701E86009711F491E09E8781E461E092
:1012E0004E850E9487068985282F30E0CE01019621
:1012F000FC01E20FF31F8081869586958695882FE5
:1013000090E0817090701D86009711F4E1E0ED8708
:1013100081E462E04D850E9487068985282F30E0B0
:10132000CE010196FC01E20FF31F808182958F7040
:10133000882F90E0817090701C86009711F4F1E086
:10134000FC8781E463E04C850E9487068985282F0D
:1013500030E0CE010196FC01E20FF31F80818295FF
:1013600086958770882F90E0817090701B8600971B
:1013700011F481E08B8781E466E04B850E9487064B
:101380008985282F30E0CE010196FC01E20FF31F82
:1013900080818295869586958370882F90E08170F4
:1013A00090701A86009711F491E09A8781E467E0C3
:1013B0004A850E9487068985282F30E0CE01019654
:1013C000FC01E20FF31F8081982F991F9927991F25
:1013D00081E0982781E460E0492F0E9487066596A6
:1013E0000FB6F894DEBF0FBECDBFCF91DF91089549
:1013F000DF93CF930F92CDB7DEB789838981882F92
:1014000090E0FC01E859FF4F20818981882F90E00E
:10141000FC01E259FF4F9081822F692F41E00E9429
:1014200087060F90CF91DF910895DF93CF930F92AE
:10143000CDB7DEB789838981882F90E0FC01E85918
:10144000FF4F20818981882F90E0FC01E259FF4FF6
:101450009081822F692F40E00E9487060F90CF91E4
:10146000DF910895DF93CF9300D0CDB7DEB78A83A5
:1014700019820EC09A818981981721F489810E946E
:10148000F80903C089810E94150A89818F5F8983C9
:101490008981863078F30F900F90CF91DF91089576
:1014A000DF93CF93CDB7DEB76E970FB6F894DEBF5C
:1014B0000FBECDBF0E94E40780E00E94F80981E0E2
:1014C0000E94F80982E00E94F80983E00E94F8096E
:1014D00084E00E94F80985E00E94F80981E00E94FA
:1014E000150A82E00E94150A83E00E94150A84E032
:1014F0000E94150A85E00E94150A1E8E1D8E8E8D93
:101500000E9400098D8D0E94320A82E466E00E94EA
:101510006B07882309F091C080E090E0A8E4B3E471
:10152000898F9A8FAB8FBC8F698D7A8D8B8D9C8DB7
:1015300020E030E048E453E40E941F02DC01CB01CC
:101540008D8B9E8BAF8BB88F6D897E898F89988D9F
:1015500020E030E040E85FE30E94790388232CF428
:1015600081E090E09C8B8B8B3FC06D897E898F8959
:10157000988D20E03FEF4FE757E40E9419031816BB
:101580004CF5698D7A8D8B8D9C8D20E030E040E2AA
:1015900051E40E941F02DC01CB01BC01CD010E947D
:1015A0004900DC01CB019C8B8B8B0FC084E190E068
:1015B0009A8B898B89899A890197F1F79A8B898B04
:1015C0008B899C8901979C8B8B8B8B899C8900973D
:1015D00069F714C06D897E898F89988D0E944900B2
:1015E000DC01CB019C8B8B8B8B899C89988B8F87A3
:1015F0008F8598890197F1F7988B8F878E8D83302F
:1016000059F48D8D853021F48E8D8F5F8E8F15C0AE
:101610008D8D8F5F8D8F11C08E8D882359F48D8DA8
:10162000882321F48E8D8F5F8E8F07C08D8D815022
:101630008D8F03C08E8D8F5F8E8F82E467E00E9456
:101640006B07882309F091C080E090E0A8E4B3E440
:101650008B879C87AD87BE876B857C858D859E85B6
:1016600020E030E048E453E40E941F02DC01CB019B
:101670008F839887A987BA876F81788589859A85AE
:1016800020E030E040E85FE30E94790388232CF4F7
:1016900081E090E09E838D833FC06F81788589854E
:1016A0009A8520E03FEF4FE757E40E941903181690
:1016B0004CF56B857C858D859E8520E030E040E291
:1016C00051E40E941F02DC01CB01BC01CD010E944C
:1016D0004900DC01CB019E838D830FC084E190E043
:1016E0009C838B838B819C810197F1F79C838B83F7
:1016F0008D819E8101979E838D838D819E81009730
:1017000069F714C06F81788589859A850E944900A0
:10171000DC01CB019E838D838D819E819A83898399
:1017200089819A810197F1F79A8389838E8D83301D
:1017300059F48D8D882321F48E8D81508E8F15C0A4
:101740008D8D81508D8F11C08E8D882359F48D8D94
:10175000853021F48E8D81508E8F07C08D8D8F5FE7
:101760008D8F03C08E8D81508E8F8E8D86300CF0C4
:101770001E8E8E8D882314F485E08E8F8D8D86309D
:101780000CF01D8E8D8D88230CF0B9CE85E08D8FE9
:10179000B6CE2F923F924F925F926F927F928F922E
:1017A0009F92AF92BF92CF92DF92EF92FF920F93F0
:1017B0001F93CF93DF93CDB7DEB7CA1BDB0B0FB6FA
:1017C000F894DEBF0FBECDBF09942A8839884888B7
:1017D0005F846E847D848C849B84AA84B984C8844D
:1017E000DF80EE80FD800C811B81AA81B981CE0F44
:1017F000D11D0FB6F894DEBF0FBECDBFED01089529
:04180000F894FFCF8A
:101804000000000000000000424242424242000147
:10181400020304053F065B4F666D7D077F6F01027F
:06182400040810204080C2
:00000001FF
