:100000000C942A000C9434000C9434000C943400AA
:100010000C9434000C9434000C9434000C94340090
:100020000C9434000C9434000C9434000C94340080
:100030000C9434000C9434000C9434000C94340070
:100040000C9434000C9434000C9434000C94340060
:100050000C94340011241FBECFE5D8E0DEBFCDBF25
:100060000E94B6020C9401030C940000DF93CF931E
:1000700000D000D00F92CDB7DEB789836A834B835F
:100080008981282F30E03D832C838C819D818234AF
:10009000910509F444C02C813D812334310534F4A9
:1000A0008C819D818134910571F0BCC02C813D8192
:1000B0002334310509F45FC08C819D81843491051E
:1000C00009F485C0AFC08B818823A9F4AAE3B0E00E
:1000D000EAE3F0E08081482F8A81282F30E081E038
:1000E00090E0022E02C0880F991F0A94E2F78095D3
:1000F00084238C9397C0AAE3B0E0EAE3F0E0808128
:10010000482F8A81282F30E081E090E0022E02C043
:10011000880F991F0A94E2F7842B8C9383C08B81FC
:100120008823A9F4A7E3B0E0E7E3F0E08081482F5B
:100130008A81282F30E081E090E0022E02C0880FF3
:10014000991F0A94E2F7809584238C936BC0A7E3F0
:10015000B0E0E7E3F0E08081482F8A81282F30E08B
:1001600081E090E0022E02C0880F991F0A94E2F706
:10017000842B8C9357C08B818823A9F4A4E3B0E02F
:10018000E4E3F0E08081482F8A81282F30E081E08D
:1001900090E0022E02C0880F991F0A94E2F7809522
:1001A00084238C933FC0A4E3B0E0E4E3F0E08081DB
:1001B000482F8A81282F30E081E090E0022E02C093
:1001C000880F991F0A94E2F7842B8C932BC08B81A4
:1001D0008823A9F4A1E3B0E0E1E3F0E08081482FB7
:1001E0008A81282F30E081E090E0022E02C0880F43
:1001F000991F0A94E2F7809584238C9313C0A1E39E
:10020000B0E0E1E3F0E08081482F8A81282F30E0E0
:1002100081E090E0022E02C0880F991F0A94E2F755
:10022000842B8C930F900F900F900F900F90CF9185
:10023000DF910895DF93CF9300D000D00F92CDB718
:10024000DEB789836A834B838981282F30E03D8321
:100250002C838C819D818234910509F444C02C81CA
:100260003D812334310534F48C819D8181349105A5
:1002700071F0BCC02C813D812334310509F45FC08D
:100280008C819D818434910509F485C0AFC08B8138
:100290008823A9F4ABE3B0E0EBE3F0E08081482FE2
:1002A0008A81282F30E081E090E0022E02C0880F82
:1002B000991F0A94E2F7809584238C9397C0ABE34F
:1002C000B0E0EBE3F0E08081482F8A81282F30E016
:1002D00081E090E0022E02C0880F991F0A94E2F795
:1002E000842B8C9383C08B818823A9F4A8E3B0E08E
:1002F000E8E3F0E08081482F8A81282F30E081E018
:1003000090E0022E02C0880F991F0A94E2F78095B0
:1003100084238C936BC0A8E3B0E0E8E3F0E0808135
:10032000482F8A81282F30E081E090E0022E02C021
:10033000880F991F0A94E2F7842B8C9357C08B8106
:100340008823A9F4A5E3B0E0E5E3F0E08081482F3D
:100350008A81282F30E081E090E0022E02C0880FD1
:10036000991F0A94E2F7809584238C933FC0A5E3FC
:10037000B0E0E5E3F0E08081482F8A81282F30E06B
:1003800081E090E0022E02C0880F991F0A94E2F7E4
:10039000842B8C932BC08B818823A9F4A2E3B0E03B
:1003A000E2E3F0E08081482F8A81282F30E081E06D
:1003B00090E0022E02C0880F991F0A94E2F7809500
:1003C00084238C9313C0A2E3B0E0E2E3F0E08081E9
:1003D000482F8A81282F30E081E090E0022E02C071
:1003E000880F991F0A94E2F7842B8C930F900F903B
:1003F0000F900F900F90CF91DF910895DF93CF93DF
:1004000000D000D00F92CDB7DEB78A836B838A818C
:10041000282F30E03D832C834C815D81423451058F
:1004200041F18C819D818334910534F42C813D818F
:100430002134310561F052C04C815D814334510556
:1004400051F18C819D8184349105B9F147C0E9E374
:10045000F0E08081282F30E08B81882F90E0A90187
:1004600002C0559547958A95E2F7CA018170898344
:1004700035C0E6E3F0E08081282F30E08B81882FC3
:1004800090E0A90102C0559547958A95E2F7CA0107
:100490008170898323C0E3E3F0E08081282F30E07E
:1004A0008B81882F90E0A90102C0559547958A95C8
:1004B000E2F7CA018170898311C0E0E3F0E0808136
:1004C000282F30E08B81882F90E0A90102C055953C
:1004D00047958A95E2F7CA018170898389810F90D7
:1004E0000F900F900F900F90CF91DF910895DF93B1
:1004F000CF93CDB7DEB781E460E041E00E941A01FE
:10050000CF91DF910895DF93CF93CDB7DEB781E42C
:1005100060E040E00E941A01CF91DF910895DF93DF
:10052000CF93CDB7DEB7EAE3F0E083E38083E7E380
:10053000F0E083E38083E4E3F0E083E38083E1E3BE
:10054000F0E080EF8083EBE3F0E083E38083E8E397
:10055000F0E083E38083E5E3F0E083E38083E2E39C
:10056000F0E08FE08083CF91DF910895DF93CF9308
:10057000CDB7DEB70E948F0284E460E00E94FE01E6
:10058000882331F484E464E041E00E941A0105C04C
:1005900084E464E040E00E941A0184E461E00E9487
:1005A000FE01882331F484E465E041E00E941A01F1
:1005B00005C084E465E040E00E941A0184E462E042
:1005C0000E94FE01882331F484E466E041E00E9449
:1005D0001A0105C084E466E040E00E941A0184E448
:1005E00063E00E94FE01882331F484E467E041E087
:1005F0000E941A01C1CF84E467E040E00E941A0122
:06060000BBCFF894FFCF10
:00000001FF
