:100000000C942A000C9447000C9447000C94470071
:100010000C9447000C9447000C9447000C94470044
:100020000C9447000C9447000C9447000C94470034
:100030000C9447000C9447000C9447000C94470024
:100040000C9447000C9447000C9447000C94470014
:100050000C94470011241FBECFE5D8E0DEBFCDBF12
:1000600011E0A0E6B0E0E8EDF4E202C005900D92E8
:10007000A638B107D9F711E0A6E8B1E001C01D929A
:10008000A738B107E1F70E94040C0C946A120C9493
:100090000000EF92FF920F931F937B018C0120E0F1
:1000A00030E040E05FE40E94F50388238CF0C80153
:1000B000B70120E030E040E05FE40E94C1010E940F
:1000C000B3049B01AC01205030404040504806C072
:1000D000C801B7010E94B3049B01AC01B901CA0178
:1000E0001F910F91FF90EF900895A0E0B0E0EBE733
:1000F000F0E00C943312DC012B01FA019C91923058
:1001000008F439C1EB018881823008F433C194309E
:1001100069F4843009F02FC111969C91119789815F
:10012000981709F428C1A0E6B0E025C1843009F48D
:1001300021C18230A9F4923009F01DC19A01AD01AC
:1001400088E0EA010990AE01E90109929E0181501F
:10015000C1F7E201898111969C918923818308C1AD
:10016000923009F407C112962D903C901397EB0141
:100170008A819B811496AD90BD90CD90DC901797AD
:10018000EC80FD800E811F819101281B390BB90184
:1001900037FF04C066277727621B730B6032710537
:1001A0000CF061C0121613066CF537014801062EDB
:1001B00004C096948794779467940A94D2F721E0C8
:1001C00030E040E050E004C0220F331F441F551FB1
:1001D0006A95D2F721503040404050402E213F21B7
:1001E00040235123211531054105510521F021E01E
:1001F00030E040E050E079018A01E628F72808293C
:1002000019293CC0232BD1F1260E371E350146019A
:10021000062E04C096948794779467940A94D2F734
:1002200021E030E040E050E004C0220F331F441FC3
:10023000551F6A95D2F721503040404050402A2146
:100240003B214C215D21211531054105510521F04E
:1002500021E030E040E050E059016A01A628B728CB
:10026000C828D9280BC0821593052CF01C01AA249C
:10027000BB24650103C0EE24FF24870111969C91E5
:10028000D20111968C91981709F445C0992339F041
:10029000A80197012A193B094C095D0906C0A6016E
:1002A00095012E193F09400B510B57FD08C01182D3
:1002B0003382228224833583468357831DC081E0A5
:1002C00081833382228288279927DC01821B930B4A
:1002D000A40BB50B84839583A683B7830DC0220F2F
:1002E000331F441F551F24833583468357838281E0
:1002F000938101979383828324813581468157813D
:10030000DA01C9010197A109B1098F5F9F4FAF4F72
:10031000BF4328F30BC0918333822282EA0CFB1C7B
:100320000C1D1D1DE482F5820683178383E0808304
:10033000248135814681578157FF1AC0C901AA27F8
:1003400097FDA095BA2F81709070A070B0705695EF
:10035000479537952795822B932BA42BB52B848318
:100360009583A683B7838281938101969383828349
:10037000DF0101C0D201CD01CDB7DEB7E2E10C94BF
:100380004F12A0E2B0E0E7ECF1E00C943F12698379
:100390007A838B839C832D833E834F835887E9E048
:1003A000EE2EF12CEC0EFD1ECE010196B7010E943F
:1003B000A4068E010F5E1F4FCE010596B8010E9464
:1003C000A4068A8991E089278A8BC701B801AE010A
:1003D000475E5F4F0E9475000E94CF05A096E6E041
:1003E0000C945B12A0E2B0E0E8EFF1E00C943F1255
:1003F00069837A838B839C832D833E834F835887C5
:10040000F9E0EF2EF12CEC0EFD1ECE010196B701A6
:100410000E94A4068E010F5E1F4FCE010596B80103
:100420000E94A406C701B801AE01475E5F4F0E945B
:1004300075000E94CF05A096E6E00C945B12A0E246
:10044000B0E0E5E2F2E00C94331269837A838B83A7
:100450009C832D833E834F835887CE010196BE0136
:10046000675F7F4F0E94A406CE010596BE016F5EB6
:100470007F4F0E94A4069985923088F08989823046
:10048000C8F0943019F4823051F404C0843029F457
:10049000923081F480E690E0C6C0923049F420E0CA
:1004A0009A858A89981321E02A87CE010996BBC0D4
:1004B000823049F420E09A858A89981321E02A8BBA
:1004C000CE014196B0C02D843E844F8458886D88FB
:1004D0007E888F88988CEE24FF248701AA24BB2471
:1004E000650140E050E060E070E0E0E0F0E0C10174
:1004F00081709070892BE9F0E60CF71C081D191D1E
:100500009A01AB012A0D3B1D4C1D5D1D80E090E062
:10051000A0E0B0E0E614F7040805190520F481E036
:1005200090E0A0E0B0E0BA01A901480F591F6A1F8E
:100530007B1FAA0CBB1CCC1CDD1C97FE08C081E0F5
:1005400090E0A0E0B0E0A82AB92ACA2ADB2A3196B6
:10055000E032F10549F0660C771C881C991C569412
:10056000479437942794C3CFFA85EA892B893C892D
:100570008B859C85280F391F2E5F3F4F17C0CA01FE
:1005800081709070892B61F016950795F794E79428
:1005900080E090E0A0E0B0E8E82AF92A0A2B1B2BC3
:1005A00076956795579547952F5F3F4F77FDE7CF36
:1005B0000CC0440F551F661F771F17FD4160EE0CDE
:1005C000FF1C001F111F21503040403090E05907A0
:1005D00090E0690790E4790760F32B8F3C8FDB0193
:1005E000CA018F779070A070B07080349105A1051A
:1005F000B10561F447FD0AC0E114F10401051105DC
:1006000029F0405C5F4F6F4F7F4F40781A8EFE1786
:1006100011F081E08A8F4D8F5E8F6F8F78A383E01A
:10062000898FCE0149960E94CF05A096E2E10C94F5
:100630004F12A8E1B0E0EFE1F3E00C943B126983C4
:100640007A838B839C832D833E834F835887B9E0C5
:10065000EB2EF12CEC0EFD1ECE010196B7010E948F
:10066000A4068E010F5E1F4FCE010596B8010E94B1
:10067000A4062985223008F47EC03989323010F46E
:10068000B8017CC08A859A8989278A87243011F02D
:10069000223031F4231709F06EC060E670E06EC0BE
:1006A000343039F41D861E861F86188A1C861B86E8
:1006B00004C0323021F484E08987B7015FC02B8504
:1006C0003C858B899C89281B390B3C872B87ED84C3
:1006D000FE840F851889AD88BE88CF88D88CEA142F
:1006E000FB040C051D0540F4EE0CFF1C001F111F40
:1006F000215030403C872B8720E030E040E050E044
:1007000080E090E0A0E0B0E460E070E0EA14FB0478
:100710000C051D0540F0282B392B4A2B5B2BEA18C2
:10072000FB080C091D09B695A79597958795EE0CC2
:10073000FF1C001F111F6F5F7F4F6F31710531F775
:10074000DA01C9018F779070A070B0708034910584
:10075000A105B10561F427FD0AC0E114F10401050A
:10076000110529F0205C3F4F4F4F5F4F20782D87B8
:100770003E874F87588BBE01675F7F4FCB010E943A
:10078000CF056896EAE00C945712A8E1B0E0EBECD4
:10079000F3E00C943F1269837A838B839C832D83CF
:1007A0003E834F83588789E0E82EF12CEC0EFD1E26
:1007B000CE010196B7010E94A4068E010F5E1F4F65
:1007C000CE010596B8010E94A4068985823040F0CA
:1007D0008989823028F0C701B8010E941C0701C036
:1007E0008FEF6896E6E00C945B12A8E1B0E0EBEFC7
:1007F000F3E00C943F1269837A838B839C832D836F
:100800003E834F83588789E0E82EF12CEC0EFD1EC5
:10081000CE010196B7010E94A4068E010F5E1F4F04
:10082000CE010596B8010E94A4068985823040F069
:100830008989823028F0C701B8010E941C0701C0D5
:100840008FEF6896E6E00C945B12A8E1B0E0EBE273
:10085000F4E00C943F1269837A838B839C832D830D
:100860003E834F83588789E0E82EF12CEC0EFD1E65
:10087000CE010196B7010E94A4068E010F5E1F4FA4
:10088000CE010596B8010E94A4068985823040F009
:100890008989823028F0C701B8010E941C0701C075
:1008A00081E06896E6E00C945B12A8E0B0E0EBE52E
:1008B000F4E00C943C129B01AC0183E08983DA01E3
:1008C000C9018827B7FD83959927AA27BB27B82E8A
:1008D000211531054105510519F482E089833AC09B
:1008E0008823A9F0203080E0380780E0480780E8BE
:1008F000580729F460E070E080E09FEC30C0EE24FF
:10090000FF248701E21AF30A040B150B02C07901D8
:100910008A018EE1C82ED12CDC82CB82ED82FE8250
:100920000F831887C801B7010E9480050197181628
:10093000190684F4082E04C0EE0CFF1C001F111FC2
:100940000A94D2F7ED82FE820F831887C81AD90A5B
:10095000DC82CB82BA82CE0101960E94CF05289616
:10096000E9E00C945812ACE0B0E0E9EBF4E00C9450
:10097000431269837A838B839C83CE010196BE01E7
:100980006B5F7F4F0E94A4068D81823061F18230BF
:1009900050F1843021F48E81882351F12EC02F81B3
:1009A000388537FD20C06E812F3131051CF066235C
:1009B000F9F023C08EE190E0821B930B29853A85E4
:1009C0004B855C8504C056954795379527958A9544
:1009D000D2F76623B1F050954095309521953F4F61
:1009E0004F4F5F4F0EC020E030E040E050E009C0C4
:1009F0002FEF3FEF4FEF5FE704C020E030E040E033
:100A000050E8B901CA012C96E2E00C945F12A8E00C
:100A1000B0E0EDE0F5E00C943B127B018C01611538
:100A200071058105910519F482E0898360C083E036
:100A300089838EE1C82ED12CDC82CB82ED82FE82AE
:100A40000F831887C801B7010E948005FC01319708
:100A5000F7FF3BC0222733272E1B3F0B57016801AE
:100A6000022E04C0D694C794B794A7940A94D2F7E0
:100A700040E050E060E070E081E090E0A0E0B0E0B5
:100A800004C0880F991FAA1FBB1F2A95D2F7019790
:100A9000A109B1098E219F21A023B1230097A105AF
:100AA000B10521F041E050E060E070E04A295B29A7
:100AB0006C297D294D835E836F8378878EE190E07A
:100AC0008E1B9F0B9C838B8312C0309781F00E2E60
:100AD00004C0EE0CFF1C001F111F0A94D2F7ED8218
:100AE000FE820F831887CE1ADF0ADC82CB821A823D
:100AF000CE0101960E94CF052896EAE00C94571289
:100B0000EF92FF920F931F937B018C0180E0E81618
:100B100080E0F80681E0080780E0180788F48FEF8E
:100B2000E816F1040105110531F028F088E090E0A5
:100B3000A0E0B0E017C080E090E0A0E0B0E012C01C
:100B400080E0E81680E0F80680E0080781E01807FA
:100B500028F088E190E0A0E0B0E004C080E190E0FF
:100B6000A0E0B0E020E230E040E050E0281B390B8C
:100B70004A0B5B0B04C016950795F794E7948A958A
:100B8000D2F7F701E859FF4F8081281B310941094D
:100B90005109C9011F910F91FF90EF900895DF92C5
:100BA000EF92FF920F931F93FC01E480F580068182
:100BB0001781D1808081823048F480E090E0A0E10C
:100BC000B0E0E82AF92A0A2B1B2BA5C0843009F4CF
:100BD0009FC0823021F4EE24FF24870105C0E11478
:100BE000F1040105110519F4E0E0F0E096C062811E
:100BF00073819FEF623879070CF05BC022E83FEF0A
:100C0000261B370B2A3131052CF020E030E040E084
:100C100050E02AC0B801A701022E04C0769567955E
:100C2000579547950A94D2F781E090E0A0E0B0E0B4
:100C300004C0880F991FAA1FBB1F2A95D2F70197DE
:100C4000A109B1098E219F21A023B1230097A105FD
:100C5000B10521F081E090E0A0E0B0E09A01AB01A5
:100C6000282B392B4A2B5B2BDA01C9018F77907027
:100C7000A070B07080349105A105B10539F427FF4B
:100C800009C0205C3F4F4F4F5F4F04C0215C3F4F76
:100C90004F4F5F4FE0E0F0E02030A0E03A07A0E0E7
:100CA0004A07A0E45A0710F0E1E0F0E079018A0178
:100CB00027C06038710564F5FB01E158FF4FD8018A
:100CC000C7018F779070A070B07080349105A10536
:100CD000B10539F4E7FE0DC080E490E0A0E0B0E09B
:100CE00004C08FE390E0A0E0B0E0E80EF91E0A1F18
:100CF0001B1F17FF05C016950795F794E7943196CB
:100D000087E016950795F794E7948A95D1F705C083
:100D1000EE24FF248701EFEFF0E06E2F6795662742
:100D20006795902F9F77D794DD24D7948E2F869543
:100D3000492F462B582F5D29B701CA011F910F91EA
:100D4000FF90EF90DF900895FC01DB01408151811D
:100D50002281622F6F7770E0221F2227221F93814A
:100D6000892F880F822B282F30E0991F9927991FF0
:100D700011969C93119721153105A9F5411551053F
:100D80006105710511F482E037C082E89FEF139688
:100D90009C938E9312979A01AB0167E0220F331F49
:100DA000441F551F6A95D1F783E08C930DC0220F25
:100DB000331F441F551F12968D919C9113970197D5
:100DC00013969C938E931297203080E0380780E032
:100DD000480780E4580758F314962D933D934D939C
:100DE0005C93179708952F3F310579F4411551050C
:100DF0006105710519F484E08C93089564FF03C0C4
:100E000081E08C9312C01C9210C02F573040139673
:100E10003C932E93129783E08C9387E0440F551FE9
:100E2000661F771F8A95D1F7706414964D935D9372
:100E30006D937C93179708951F93DC01FB019C91A0
:100E4000923008F447C08081823008F443C0943067
:100E500051F411961C91843099F58181682F70E0CE
:100E6000611B71093FC0843021F0923031F482302F
:100E7000B9F18181882389F12DC011961C911197B8
:100E80008230F1F081811817D9F412962D913C919E
:100E90001397828193818217930794F0281739075B
:100EA000BCF014968D919D910D90BC91A02D248144
:100EB000358146815781281739074A075B0718F49F
:100EC000112341F00AC082179307A407B50740F425
:100ED000112319F061E070E005C06FEF7FEF02C0F1
:100EE00060E070E0CB011F910895DF93CF9300D0B5
:100EF00000D00F92CDB7DEB789836A834B83898197
:100F0000282F30E03D832C838C819D818234910594
:100F100009F444C02C813D812334310534F48C81A3
:100F20009D818134910571F0BCC02C813D812334B9
:100F3000310509F45FC08C819D818434910509F4E9
:100F400085C0AFC08B818823A9F4AAE3B0E0EAE3AF
:100F5000F0E08081482F8A81282F30E081E090E006
:100F6000022E02C0880F991F0A94E2F7809584230D
:100F70008C9397C0AAE3B0E0EAE3F0E08081482FC9
:100F80008A81282F30E081E090E0022E02C0880F95
:100F9000991F0A94E2F7842B8C9383C08B8188235A
:100FA000A9F4A7E3B0E0E7E3F0E08081482F8A816D
:100FB000282F30E081E090E0022E02C0880F991FB8
:100FC0000A94E2F7809584238C936BC0A7E3B0E08A
:100FD000E7E3F0E08081482F8A81282F30E081E02C
:100FE00090E0022E02C0880F991F0A94E2F7842B2A
:100FF0008C9357C08B818823A9F4A4E3B0E0E4E389
:10100000F0E08081482F8A81282F30E081E090E055
:10101000022E02C0880F991F0A94E2F7809584235C
:101020008C933FC0A4E3B0E0E4E3F0E08081482F7C
:101030008A81282F30E081E090E0022E02C0880FE4
:10104000991F0A94E2F7842B8C932BC08B81882301
:10105000A9F4A1E3B0E0E1E3F0E08081482F8A81C8
:10106000282F30E081E090E0022E02C0880F991F07
:101070000A94E2F7809584238C9313C0A1E3B0E037
:10108000E1E3F0E08081482F8A81282F30E081E081
:1010900090E0022E02C0880F991F0A94E2F7842B79
:1010A0008C930F900F900F900F900F90CF91DF9136
:1010B0000895DF93CF9300D000D00F92CDB7DEB765
:1010C00089836A834B838981282F30E03D832C8379
:1010D0008C819D818234910509F444C02C813D812D
:1010E0002334310534F48C819D818134910571F074
:1010F000BCC02C813D812334310509F45FC08C8153
:101100009D818434910509F485C0AFC08B8188230B
:10111000A9F4ABE3B0E0EBE3F0E08081482F8A81F3
:10112000282F30E081E090E0022E02C0880F991F46
:101130000A94E2F7809584238C9397C0ABE3B0E0E8
:10114000EBE3F0E08081482F8A81282F30E081E0B6
:1011500090E0022E02C0880F991F0A94E2F7842BB8
:101160008C9383C08B818823A9F4A8E3B0E0E8E3E3
:10117000F0E08081482F8A81282F30E081E090E0E4
:10118000022E02C0880F991F0A94E2F780958423EB
:101190008C936BC0A8E3B0E0E8E3F0E08081482FD7
:1011A0008A81282F30E081E090E0022E02C0880F73
:1011B000991F0A94E2F7842B8C9357C08B81882364
:1011C000A9F4A5E3B0E0E5E3F0E08081482F8A814F
:1011D000282F30E081E090E0022E02C0880F991F96
:1011E0000A94E2F7809584238C933FC0A5E3B0E096
:1011F000E5E3F0E08081482F8A81282F30E081E00C
:1012000090E0022E02C0880F991F0A94E2F7842B07
:101210008C932BC08B818823A9F4A2E3B0E0E2E396
:10122000F0E08081482F8A81282F30E081E090E033
:10123000022E02C0880F991F0A94E2F7809584233A
:101240008C9313C0A2E3B0E0E2E3F0E08081482F8A
:101250008A81282F30E081E090E0022E02C0880FC2
:10126000991F0A94E2F7842B8C930F900F900F90A4
:101270000F900F90CF91DF910895DF93CF9300D01F
:1012800000D00F92CDB7DEB78A836B838A81282F77
:1012900030E03D832C834C815D814234510541F126
:1012A0008C819D818334910534F42C813D812134DE
:1012B000310561F052C04C815D814334510551F1DB
:1012C0008C819D8184349105B9F147C0E9E3F0E058
:1012D0008081282F30E08B81882F90E0A90102C007
:1012E000559547958A95E2F7CA018170898335C083
:1012F000E6E3F0E08081282F30E08B81882F90E0BA
:10130000A90102C0559547958A95E2F7CA018170F7
:10131000898323C0E3E3F0E08081282F30E08B81D4
:10132000882F90E0A90102C0559547958A95E2F76C
:10133000CA018170898311C0E0E3F0E08081282F29
:1013400030E08B81882F90E0A90102C05595479528
:101350008A95E2F7CA018170898389810F900F9085
:101360000F900F900F90CF91DF910895DF93CF935F
:10137000CDB7DEB7EAE3F0E08FEF8083E7E3F0E09C
:101380008FE38083E4E3F0E08FEF8083E1E3F0E03C
:101390008FEF8083EBE3F0E01082E8E3F0E08FEF83
:1013A0008083E5E3F0E01082E2E3F0E01082CF9189
:1013B000DF910895DF93CF93CDB7DEB767970FB670
:1013C000F894DEBF0FBECDBF8B87CE0101969C8BFC
:1013D0008B8BE4E7F1E0FE8BED8BFAE0FF8BED8980
:1013E000FE8900808D899E8901969E8B8D8BEB896D
:1013F000FC8900828B899C8901969C8B8B8B9F89B1
:1014000091509F8BEF89EE2351F78B85282F30E089
:10141000CE010196FC01E20FF31F8081882F90E03E
:10142000817090701A8A009711F4F1E0FA8B81E4D0
:1014300065E04A890E9459088B85282F30E0CE014B
:101440000196FC01E20FF31F80818695882F90E0C2
:1014500081709070198A009711F481E0898B81E482
:1014600064E049890E9459088B85282F30E0CE011D
:101470000196FC01E20FF31F808186958695882FE7
:1014800090E081709070188A009711F491E0988B29
:1014900081E461E048890E9459088B85282F30E05B
:1014A000CE010196FC01E20FF31F8081869586959F
:1014B0008695882F90E0817090701F86009711F4B8
:1014C000E1E0EF8781E462E04F850E9459088B8557
:1014D000282F30E0CE010196FC01E20FF31F80813E
:1014E00082958F70882F90E0817090701E86009793
:1014F00011F4F1E0FE8781E463E04E850E94590813
:101500008B85282F30E0CE010196FC01E20FF31FFE
:101510008081829586958770882F90E08170907089
:101520001D86009711F481E08D8781E466E04D858A
:101530000E9459088B85282F30E0CE010196FC01CE
:10154000E20FF31F80818295869586958370882FA0
:1015500090E0817090701C86009711F491E09C8758
:1015600081E467E04C850E9459088B85282F30E084
:10157000CE010196FC01E20FF31F8081982F991F85
:101580009927991F81E0982781E460E0492F0E9404
:10159000590867960FB6F894DEBF0FBECDBFCF9146
:1015A000DF910895DF93CF93CDB7DEB765970FB680
:1015B000F894DEBF0FBECDBF8987CE0101969A8B0E
:1015C000898BEEE7F1E0FC8BEB8BF8E0FD8BEB8990
:1015D000FC8900808B899C8901969C8B8B8BE98987
:1015E000FA89008289899A8901969A8B898B9D89CB
:1015F00091509D8BED89EE2351F78985282F30E09E
:10160000CE010196FC01E20FF31F8081882F90E04C
:1016100081709070188A009711F4F1E0F88B81E4E2
:1016200065E048890E9459088985282F30E0CE015D
:101630000196FC01E20FF31F80818695882F90E0D0
:10164000817090701F86009711F481E08F8781E48C
:1016500064E04F850E9459088985282F30E0CE012B
:101660000196FC01E20FF31F808186958695882FF5
:1016700090E0817090701E86009711F491E09E8733
:1016800081E461E04E850E9459088985282F30E069
:10169000CE010196FC01E20FF31F808186958695AD
:1016A0008695882F90E0817090701D86009711F4C8
:1016B000E1E0ED8781E462E04D850E94590889856B
:1016C000282F30E0CE010196FC01E20FF31F80814C
:1016D00082958F70882F90E0817090701C860097A3
:1016E00011F4F1E0FC8781E463E04C850E94590825
:1016F0008985282F30E0CE010196FC01E20FF31F0F
:101700008081829586958770882F90E08170907097
:101710001B86009711F481E08B8781E466E04B859E
:101720000E9459088985282F30E0CE010196FC01DE
:10173000E20FF31F80818295869586958370882FAE
:1017400090E0817090701A86009711F491E09A876A
:1017500081E467E04A850E9459088985282F30E096
:10176000CE010196FC01E20FF31F8081982F991F93
:101770009927991F81E0982781E460E0492F0E9412
:10178000590865960FB6F894DEBF0FBECDBFCF9156
:10179000DF910895DF93CF930F92CDB7DEB78983A2
:1017A0008981882F90E0FC01E859FE4F20818981D2
:1017B000882F90E0FC01E259FE4F9081822F692F23
:1017C00041E00E9459080F90CF91DF910895DF9377
:1017D000CF930F92CDB7DEB789838981882F90E0B0
:1017E000FC01E859FE4F20818981882F90E0FC019F
:1017F000E259FE4F9081822F692F40E00E945908E4
:101800000F90CF91DF9108950F931F93DF93CF93A4
:10181000CDB7DEB7C058D0400FB6F894DEBF0FBECC
:10182000CDBF0E94B60980E00E94E70B81E00E94D4
:10183000E70B82E00E94E70B83E00E94E70B84E065
:101840000E94E70B85E00E94E70BFE01E058FF4F86
:101850001082FE01E158FF4F1082FE01E258FF4F57
:101860001082FE01E358FF4F1082FE01E458FF4F43
:101870001082FE01E558FF4F88EC808381E00E94D2
:10188000E70BFE01E058FF4F80810E94DA0980E0FB
:101890000E94CA0BFE01E958FF4F80E090E0A0EAE9
:1018A000B0E480839183A283B3838E010D581F4FD0
:1018B000FE01E958FF4F608171818281938120E0B0
:1018C00030E048E453E40E941F02DC01CB01F80140
:1018D00080839183A283B383FE01ED58FF4F608123
:1018E00071818281938120E030E040E85FE30E94D3
:1018F0002504882344F4FE01EF58FF4F81E090E077
:101900009183808364C0FE01ED58FF4F6081718137
:101910008281938120E03FEF4FE757E40E94C503A7
:1019200018160CF043C0FE01E958FF4F6081718129
:101930008281938120E030E040E251E40E941F0266
:10194000DC01CB018E010F581F4FBC01CD010E945D
:101950004900DC01CB01F801918380831FC0FE01A7
:10196000E159FF4F84E190E091838083FE01E159CA
:10197000FF4F808191810197F1F7FE01E159FF4FFF
:1019800091838083DE01AF58BF4FFE01EF58FF4FB8
:1019900080819181019711969C938E93FE01EF585F
:1019A000FF4F808191810097D1F627C08E010F589B
:1019B0001F4FFE01ED58FF4F60817181828193813D
:1019C0000E944900DC01CB01F80191838083DE0194
:1019D000A359BF4FFE01EF58FF4F808191818D9336
:1019E0009C93FE01E359FF4F808191810197F1F7AC
:1019F000FE01E359FF4F9183808380E00E94E70B53
:101A0000FE01E158FF4F80810E94DA0981E00E94C7
:101A1000CA0BFE01E759FF4F80E090E0A8E4B4E470
:101A200080839183A283B3838E010B591F4FFE01E4
:101A3000E759FF4F608171818281938129E838E8FD
:101A400048E85EE30E941F02DC01CB01F8018083BD
:101A50009183A283B383FE01EB59FF4F60817181B3
:101A60008281938120E030E040E85FE30E9425041A
:101A7000882334F4FE01EC59FF4F81E08083E0C0FD
:101A8000FE01EB59FF4F608171818281938120E0DB
:101A900030E04FE753E40E94C50318160CF0C0C0B5
:101AA000FE01E759FF4F608171818281938120E0BF
:101AB00030E04AE754E40E941903DC01CB01FE0147
:101AC000E05AFF4F80839183A283B3838E01045A2F
:101AD0001F4FFE01E05AFF4F608171818281938127
:101AE00020E030E048E453E40E941F02DC01CB0117
:101AF000F80180839183A283B383FE01E45AFF4FF0
:101B0000608171818281938120E030E040E85FE371
:101B10000E942504882344F4FE01E65AFF4F81E029
:101B200090E09183808364C0FE01E45AFF4F60819E
:101B300071818281938120E03FEF4FE757E40E945B
:101B4000C50318160CF043C0FE01E05AFF4F608138
:101B500071818281938120E030E040E251E40E9473
:101B60001F02DC01CB018E01065A1F4FBC01CD01C3
:101B70000E944900DC01CB01F801918380831FC0E2
:101B8000FE01E85AFF4F84E190E091838083FE01DB
:101B9000E85AFF4F808191810197F1F7FE01E85AE1
:101BA000FF4F91838083DE01A65ABF4FFE01E65AA4
:101BB000FF4F80819181019711969C938E93FE0136
:101BC000E65AFF4F808191810097D1F64BC08E017C
:101BD000065A1F4FFE01E45AFF4F608171818281D6
:101BE00093810E944900DC01CB01F801918380833D
:101BF000DE01AA5ABF4FFE01E65AFF4F8081918154
:101C000011969C938E93FE01EA5AFF4F8081918139
:101C10000197F1F7FE01EA5AFF4F9183808322C0BA
:101C20008E010C591F4FFE01EB59FF4F60817181EE
:101C3000828193810E944900DC01CB01F8018083FD
:101C4000DE01AB5ABF4FFE01EC59FF4F80818C93F0
:101C5000FE01EB5AFF4F80818A95F1F7FE01EB5AA6
:101C6000FF4F808382E466E00E943D09882309F0EB
:101C700083C182E467E00E943D09882309F07CC1AA
:101C8000DE01A458BF4FFE01E458FF4F80818F5FF3
:101C90008C93FE01E258FF4F1082FE01E358FF4F84
:101CA0001082FE01E458FF4F80818B3008F4C2C0DF
:101CB000FE01E558FF4F80818695882F90E0AA2786
:101CC00097FDA095BA2FBC01CD010E945504DC01FF
:101CD000CB01FE01EF5AFF4F80839183A283B38330
:101CE0008E01035B1F4FFE01EF5AFF4F6081718130
:101CF0008281938120E030E048E453E40E941F0297
:101D0000DC01CB01F80180839183A283B383FE01C0
:101D1000E35BFF4F608171818281938120E030E03D
:101D200040E85FE30E942504882344F4FE01E55B5C
:101D3000FF4F81E090E09183808364C0FE01E35B0C
:101D4000FF4F608171818281938120E03FEF4FE7F7
:101D500057E40E94C50318160CF043C0FE01EF5A69
:101D6000FF4F608171818281938120E030E040E209
:101D700051E40E941F02DC01CB018E01055B1F4F65
:101D8000BC01CD010E944900DC01CB01F801918327
:101D900080831FC0FE01E75BFF4F84E190E09183E9
:101DA0008083FE01E75BFF4F808191810197F1F70E
:101DB000FE01E75BFF4F91838083DE01A55BBF4F90
:101DC000FE01E55BFF4F80819181019711969C9305
:101DD0008E93FE01E55BFF4F808191810097D1F6E4
:101DE000B8C08E01055B1F4FFE01E35BFF4F6081B2
:101DF0007181828193810E944900DC01CB01F8014D
:101E000091838083DE01A95BBF4FFE01E55BFF4F3D
:101E10008081918111969C938E93FE01E95BFF4F27
:101E2000808191810197F1F7FE01E95BFF4F91837A
:101E300080838FC0FE01E558FF4F8081882F90E09E
:101E4000A0E0B0E0BC01CD010E940705DC01CB01A0
:101E5000FE01ED5BFF4F80839183A283B3838E01EC
:101E6000015C1F4FFE01ED5BFF4F6081718182813C
:101E7000938120E030E048E453E40E941F02DC013B
:101E8000CB01F80180839183A283B383FE01FF9687
:101E9000608171818281938120E030E040E85FE3DE
:101EA0000E94250488232CF481E090E09EAF8DAF42
:101EB00046C0FE01FF96608171818281938120E09E
:101EC0003FEF4FE757E40E94C503181664F5FE0183
:101ED000ED5BFF4F608171818281938120E030E072
:101EE00040E251E40E941F02DC01CB01BC01CD01A4
:101EF0000E944900DC01CB019EAF8DAF0FC084E191
:101F000090E09CAF8BAF8BAD9CAD0197F1F79CAF90
:101F10008BAF8DAD9EAD01979EAF8DAF8DAD9EAD5C
:101F2000009769F716C0FE01FF966081718182817A
:101F300093810E944900DC01CB019EAF8DAF8DAD36
:101F40009EAD9AAF89AF89AD9AAD0197F1F79AAF7F
:101F500089AFDE01A158BF4FFE01E158FF4F8081DC
:101F600081508C93DE01A058BF4FFE01E058FF4F17
:101F7000808181508C9349C282E466E00E943D09D1
:101F8000882309F01EC1DE01A258BF4FFE01E258AE
:101F9000FF4F80818F5F8C93FE01E358FF4F1082CB
:101FA000FE01E458FF4F1082FE01E258FF4F80818E
:101FB0008B3008F480C0FE01E558FF4F8081869584
:101FC000882F90E0AA2797FDA095BA2FBC01CD01DC
:101FD0000E945504DC01CB018DAB9EABAFABB8AF1B
:101FE0006DA97EA98FA998AD20E030E048E453E4C4
:101FF0000E941F02DC01CB0189AB9AABABABBCAB3F
:1020000069A97AA98BA99CA920E030E040E85FE3A8
:102010000E94250488232CF481E090E098AB8FA7E0
:102020003FC069A97AA98BA99CA920E03FEF4FE79F
:1020300057E40E94C50318164CF56DA97EA98FA917
:1020400098AD20E030E040E251E40E941F02DC0144
:10205000CB01BC01CD010E944900DC01CB0198AB52
:102060008FA70FC084E190E09EA78DA78DA59EA5A8
:102070000197F1F79EA78DA78FA598A9019798AB17
:102080008FA78FA598A9009769F791C069A97AA928
:102090008BA99CA90E944900DC01CB0198AB8FA7BA
:1020A0008FA598A99CA78BA78BA59CA50197F1F755
:1020B0009CA78BA77CC0FE01E558FF4F8081882F2D
:1020C00090E0A0E0B0E0BC01CD010E940705DC017A
:1020D000CB018FA398A7A9A7BAA76FA178A589A5B7
:1020E0009AA520E030E048E453E40E941F02DC019E
:1020F000CB018BA39CA3ADA3BEA36BA17CA18DA19F
:102100009EA120E030E040E85FE30E9425048823A0
:102110002CF481E090E09AA389A33FC06BA17CA13D
:102120008DA19EA120E03FEF4FE757E40E94C50339
:1021300018164CF56FA178A589A59AA520E030E086
:1021400040E251E40E941F02DC01CB01BC01CD0141
:102150000E944900DC01CB019AA389A30FC084E14E
:1021600090E098A38F8F8F8D98A10197F1F798A396
:102170008F8F89A19AA101979AA389A389A19AA176
:10218000009769F714C06BA17CA18DA19EA10E944C
:102190004900DC01CB019AA389A389A19AA19E8F52
:1021A0008D8F8D8D9E8D0197F1F79E8F8D8FDE0126
:1021B000A058BF4FFE01E058FF4F80818F5F8C9386
:1021C00024C182E467E00E943D09882309F01DC113
:1021D000DE01A358BF4FFE01E358FF4F80818F5FA0
:1021E0008C93FE01E258FF4F1082FE01E458FF4F2E
:1021F0001082FE01E358FF4F80818B3008F480C0CD
:10220000FE01E558FF4F80818695882F90E0AA2730
:1022100097FDA095BA2FBC01CD010E945504DC01A9
:10222000CB01898F9A8FAB8FBC8F698D7A8D8B8D07
:102230009C8D20E030E048E453E40E941F02DC0162
:10224000CB018D8B9E8BAF8BB88F6D897E898F89EB
:10225000988D20E030E040E85FE30E942504882369
:102260002CF481E090E09C8B8B8B3FC06D897E8944
:102270008F89988D20E03FEF4FE757E40E94C50318
:1022800018164CF5698D7A8D8B8D9C8D20E030E091
:1022900040E251E40E941F02DC01CB01BC01CD01F0
:1022A0000E944900DC01CB019C8B8B8B0FC084E129
:1022B00090E09A8B898B89899A890197F1F79A8B9B
:1022C000898B8B899C8901979C8B8B8B8B899C89B3
:1022D000009769F791C06D897E898F89988D0E94DA
:1022E0004900DC01CB019C8B8B8B8B899C89988B63
:1022F0008F878F8598890197F1F7988B8F877CC09E
:10230000FE01E558FF4F8081882F90E0A0E0B0E00B
:10231000BC01CD010E940705DC01CB018B879C87A6
:10232000AD87BE876B857C858D859E8520E030E0FE
:1023300048E453E40E941F02DC01CB018F8398879D
:10234000A987BA876F81788589859A8520E030E0F2
:1023500040E85FE30E94250488232CF481E090E0AC
:102360009E838D833FC06F81788589859A8520E023
:102370003FEF4FE757E40E94C50318164CF56B85F5
:102380007C858D859E8520E030E040E251E40E940E
:102390001F02DC01CB01BC01CD010E944900DC0120
:1023A000CB019E838D830FC084E190E09C838B835F
:1023B0008B819C810197F1F79C838B838D819E811A
:1023C00001979E838D838D819E81009769F714C04C
:1023D0006F81788589859A850E944900DC01CB014F
:1023E0009E838D838D819E819A83898389819A8141
:1023F0000197F1F79A838983DE01A158BF4FFE014F
:10240000E158FF4F80818F5F8C93FE01E058FF4FB2
:1024100080818A302CF0FE01E058FF4F10820BC003
:10242000FE01E058FF4F808188232CF4FE01E05824
:10243000FF4F89E08083FE01E158FF4F80818A30A1
:102440002CF0FE01E158FF4F108218CAFE01E1583E
:10245000FF4F808188230CF011CAFE01E158FF4F25
:1024600089E080830BCA2F923F924F925F926F92C6
:102470007F928F929F92AF92BF92CF92DF92EF9214
:10248000FF920F931F93CF93DF93CDB7DEB7CA1B95
:10249000DB0B0FB6F894DEBF0FBECDBF09942A88C0
:1024A000398848885F846E847D848C849B84AA8468
:1024B000B984C884DF80EE80FD800C811B81AA81F5
:1024C000B981CE0FD11D0FB6F894DEBF0FBECDBFC0
:0824D000ED010895F894FFCF1F
:1024D80000000000000000000001020203030303E3
:1024E800040404040404040405050505050505059C
:1024F800050505050505050506060606060606067C
:102508000606060606060606060606060606060663
:10251800060606060606060607070707070707074B
:102528000707070707070707070707070707070733
:102538000707070707070707070707070707070723
:102548000707070707070707070707070707070713
:1025580007070707070707070808080808080808FB
:1025680008080808080808080808080808080808E3
:1025780008080808080808080808080808080808D3
:1025880008080808080808080808080808080808C3
:1025980008080808080808080808080808080808B3
:1025A80008080808080808080808080808080808A3
:1025B8000808080808080808080808080808080893
:1025C8000808080808080808080808080808080883
:1025D8000808080808080808424242424242000126
:1025E800020304053F065B4F666D7D077F6F01029E
:0625F800040810204080E1
:00000001FF
