:100000000C942A000C9447000C9447000C94470071
:100010000C9447000C9447000C9447000C94470044
:100020000C9447000C9447000C9447000C94470034
:100030000C9447000C9447000C9447000C94470024
:100040000C9447000C9447000C9447000C94470014
:100050000C94470011241FBECFE5D8E0DEBFCDBF12
:1000600010E0A0E6B0E0E8EEF9E002C005900D92E5
:10007000AE37B107D9F710E0AEE7B0E001C01D928E
:10008000AF37B107E1F70E94DA040C94F2040C9444
:100090000000DF93CF9300D000D00F92CDB7DEB732
:1000A00089836A834B838981282F30E03D832C83A9
:1000B0008C819D818234910509F444C02C813D815D
:1000C0002334310534F48C819D818134910571F0A4
:1000D000BCC02C813D812334310509F45FC08C8183
:1000E0009D818434910509F485C0AFC08B8188233C
:1000F000A9F4AAE3B0E0EAE3F0E08081482F8A8126
:10010000282F30E081E090E0022E02C0880F991F76
:100110000A94E2F7809584238C9397C0AAE3B0E019
:10012000EAE3F0E08081482F8A81282F30E081E0E7
:1001300090E0022E02C0880F991F0A94E2F7842BE8
:100140008C9383C08B818823A9F4A7E3B0E0E7E315
:10015000F0E08081482F8A81282F30E081E090E014
:10016000022E02C0880F991F0A94E2F7809584231B
:100170008C936BC0A7E3B0E0E7E3F0E08081482F09
:100180008A81282F30E081E090E0022E02C0880FA3
:10019000991F0A94E2F7842B8C9357C08B81882394
:1001A000A9F4A4E3B0E0E4E3F0E08081482F8A8181
:1001B000282F30E081E090E0022E02C0880F991FC6
:1001C0000A94E2F7809584238C933FC0A4E3B0E0C7
:1001D000E4E3F0E08081482F8A81282F30E081E03D
:1001E00090E0022E02C0880F991F0A94E2F7842B38
:1001F0008C932BC08B818823A9F4A1E3B0E0E1E3C9
:10020000F0E08081482F8A81282F30E081E090E063
:10021000022E02C0880F991F0A94E2F7809584236A
:100220008C9313C0A1E3B0E0E1E3F0E08081482FBC
:100230008A81282F30E081E090E0022E02C0880FF2
:10024000991F0A94E2F7842B8C930F900F900F90D4
:100250000F900F90CF91DF910895DF93CF9300D04F
:1002600000D00F92CDB7DEB789836A834B83898133
:10027000282F30E03D832C838C819D818234910531
:1002800009F444C02C813D812334310534F48C8140
:100290009D818134910571F0BCC02C813D81233456
:1002A000310509F45FC08C819D818434910509F486
:1002B00085C0AFC08B818823A9F4ABE3B0E0EBE34A
:1002C000F0E08081482F8A81282F30E081E090E0A3
:1002D000022E02C0880F991F0A94E2F780958423AA
:1002E0008C9397C0ABE3B0E0EBE3F0E08081482F64
:1002F0008A81282F30E081E090E0022E02C0880F32
:10030000991F0A94E2F7842B8C9383C08B818823F6
:10031000A9F4A8E3B0E0E8E3F0E08081482F8A8107
:10032000282F30E081E090E0022E02C0880F991F54
:100330000A94E2F7809584238C936BC0A8E3B0E025
:10034000E8E3F0E08081482F8A81282F30E081E0C7
:1003500090E0022E02C0880F991F0A94E2F7842BC6
:100360008C9357C08B818823A9F4A5E3B0E0E5E323
:10037000F0E08081482F8A81282F30E081E090E0F2
:10038000022E02C0880F991F0A94E2F780958423F9
:100390008C933FC0A5E3B0E0E5E3F0E08081482F17
:1003A0008A81282F30E081E090E0022E02C0880F81
:1003B000991F0A94E2F7842B8C932BC08B8188239E
:1003C000A9F4A2E3B0E0E2E3F0E08081482F8A8163
:1003D000282F30E081E090E0022E02C0880F991FA4
:1003E0000A94E2F7809584238C9313C0A2E3B0E0D3
:1003F000E2E3F0E08081482F8A81282F30E081E01D
:1004000090E0022E02C0880F991F0A94E2F7842B15
:100410008C930F900F900F900F900F90CF91DF91D2
:100420000895DF93CF9300D000D00F92CDB7DEB701
:100430008A836B838A81282F30E03D832C834C8113
:100440005D814234510541F18C819D818334910558
:1004500034F42C813D812134310561F052C04C814E
:100460005D814334510551F18C819D818434910526
:10047000B9F147C0E9E3F0E08081282F30E08B81BB
:10048000882F90E0A90102C0559547958A95E2F71B
:10049000CA018170898335C0E6E3F0E08081282FAE
:1004A00030E08B81882F90E0A90102C055954795D7
:1004B0008A95E2F7CA018170898323C0E3E3F0E003
:1004C0008081282F30E08B81882F90E0A90102C025
:1004D000559547958A95E2F7CA018170898311C0C5
:1004E000E0E3F0E08081282F30E08B81882F90E0DE
:1004F000A90102C0559547958A95E2F7CA01817016
:10050000898389810F900F900F900F900F90CF915A
:10051000DF910895DF93CF93CDB7DEB7EAE3F0E044
:100520008FEF8083E7E3F0E08FE38083E4E3F0E0A4
:100530008EEF8083E1E3F0E086EF8083EBE3F0E091
:100540001082E8E3F0E08FEF8083E5E3F0E081E004
:100550008083E2E3F0E089E08083CF91DF9108952A
:10056000DF93CF93CDB7DEB767970FB6F894DEBFB2
:100570000FBECDBF8B87CE0101969C8B8B8BECE69B
:10058000F0E0FE8BED8BFAE0FF8BED89FE890080B9
:100590008D899E8901969E8B8D8BEB89FC890082CB
:1005A0008B899C8901969C8B8B8B9F8991509F8B0B
:1005B000EF89EE2351F78B85282F30E0CE0101968D
:1005C000FC01E20FF31F8081882F90E08170907012
:1005D0001A8A009711F4F1E0FA8B81E465E04A8908
:1005E0000E942D018B85282F30E0CE010196FC0161
:1005F000E20FF31F80818695882F90E081709070C4
:10060000198A009711F481E0898B81E464E04989BB
:100610000E942D018B85282F30E0CE010196FC0130
:10062000E20FF31F808186958695882F90E0817078
:100630009070188A009711F491E0988B81E461E042
:1006400048890E942D018B85282F30E0CE0101962C
:10065000FC01E20FF31F8081869586958695882F91
:1006600090E0817090701F86009711F4E1E0EF87B1
:1006700081E462E04F850E942D018B85282F30E0B8
:10068000CE010196FC01E20FF31F808182958F70ED
:10069000882F90E0817090701E86009711F4F1E031
:1006A000FE8781E463E04E850E942D018B85282F13
:1006B00030E0CE010196FC01E20FF31F80818295AC
:1006C00086958770882F90E0817090701D860097C6
:1006D00011F481E08D8781E466E04D850E942D0153
:1006E0008B85282F30E0CE010196FC01E20FF31F2D
:1006F00080818295869586958370882F90E08170A1
:1007000090701C86009711F491E09C8781E467E06B
:100710004C850E942D018B85282F30E0CE0101965B
:10072000FC01E20FF31F8081982F991F9927991FD1
:1007300081E0982781E460E0492F0E942D016796AF
:100740000FB6F894DEBF0FBECDBFCF91DF910895F5
:10075000DF93CF93CDB7DEB765970FB6F894DEBFC2
:100760000FBECDBF8987CE0101969A8B898BE6E7B4
:10077000F0E0FC8BEB8BF8E0FD8BEB89FC890080D3
:100780008B899C8901969C8B8B8BE989FA890082E5
:1007900089899A8901969A8B898B9D8991509D8B25
:1007A000ED89EE2351F78985282F30E0CE0101969F
:1007B000FC01E20FF31F8081882F90E08170907020
:1007C000188A009711F4F1E0F88B81E465E048891C
:1007D0000E942D018985282F30E0CE010196FC0171
:1007E000E20FF31F80818695882F90E081709070D2
:1007F0001F86009711F481E08F8781E464E04F85C4
:100800000E942D018985282F30E0CE010196FC0140
:10081000E20FF31F808186958695882F90E0817086
:1008200090701E86009711F491E09E8781E461E04C
:100830004E850E942D018985282F30E0CE0101963A
:10084000FC01E20FF31F8081869586958695882F9F
:1008500090E0817090701D86009711F4E1E0ED87C3
:1008600081E462E04D850E942D018985282F30E0CA
:10087000CE010196FC01E20FF31F808182958F70FB
:10088000882F90E0817090701C86009711F4F1E041
:10089000FC8781E463E04C850E942D018985282F27
:1008A00030E0CE010196FC01E20FF31F80818295BA
:1008B00086958770882F90E0817090701B860097D6
:1008C00011F481E08B8781E466E04B850E942D0165
:1008D0008985282F30E0CE010196FC01E20FF31F3D
:1008E00080818295869586958370882F90E08170AF
:1008F00090701A86009711F491E09A8781E467E07E
:100900004A850E942D018985282F30E0CE0101966D
:10091000FC01E20FF31F8081982F991F9927991FDF
:1009200081E0982781E460E0492F0E942D016596BF
:100930000FB6F894DEBF0FBECDBFCF91DF91089503
:10094000DF93CF930F92CDB7DEB789838981882F4C
:1009500090E0FC01E05AFF4F20818981882F90E0D0
:10096000FC01EA59FF4F9081822F692F41E00E94DC
:100970002D010F90CF91DF910895DF93CF930F92C8
:10098000CDB7DEB789838981882F90E0FC01E05ADA
:10099000FF4F20818981882F90E0FC01EA59FF4FA9
:1009A0009081822F692F40E00E942D010F90CF91FE
:1009B000DF910895DF93CF93CDB7DEB70E948A020F
:1009C00084E460E00E941102882331F483E461E052
:1009D00041E00E942D01F4CF83E461E040E00E94F9
:0809E0002D01EECFF894FFCFCA
:1009E8004242424242420001020304053F065B4F75
:0E09F800666D7D077F6F0102040810204080AD
:00000001FF
